{
  "_format": "hh-sol-artifact-1",
  "contractName": "ZUSD",
  "sourceName": "contracts/ZUSD.sol",
  "abi": [
    {
      "inputs": [
        {
          "internalType": "address",
          "name": "_hasherAddress",
          "type": "address"
        },
        {
          "internalType": "address",
          "name": "_troveManagerAddress",
          "type": "address"
        },
        {
          "internalType": "address",
          "name": "_stabilityPoolAddress",
          "type": "address"
        }
      ],
      "stateMutability": "nonpayable",
      "type": "constructor"
    },
    {
      "anonymous": false,
      "inputs": [
        {
          "indexed": true,
          "internalType": "address",
          "name": "owner",
          "type": "address"
        },
        {
          "indexed": true,
          "internalType": "address",
          "name": "spender",
          "type": "address"
        },
        {
          "indexed": false,
          "internalType": "uint256",
          "name": "value",
          "type": "uint256"
        }
      ],
      "name": "Approval",
      "type": "event"
    },
    {
      "anonymous": false,
      "inputs": [
        {
          "indexed": true,
          "internalType": "bytes32",
          "name": "commitment",
          "type": "bytes32"
        },
        {
          "indexed": true,
          "internalType": "uint256",
          "name": "index",
          "type": "uint256"
        },
        {
          "indexed": true,
          "internalType": "bytes",
          "name": "encryptedOutput",
          "type": "bytes"
        }
      ],
      "name": "NewCommitment",
      "type": "event"
    },
    {
      "anonymous": false,
      "inputs": [
        {
          "indexed": true,
          "internalType": "bytes32",
          "name": "nullifier",
          "type": "bytes32"
        }
      ],
      "name": "NewNullifier",
      "type": "event"
    },
    {
      "anonymous": false,
      "inputs": [
        {
          "indexed": true,
          "internalType": "address",
          "name": "from",
          "type": "address"
        },
        {
          "indexed": true,
          "internalType": "address",
          "name": "to",
          "type": "address"
        },
        {
          "indexed": false,
          "internalType": "uint256",
          "name": "value",
          "type": "uint256"
        }
      ],
      "name": "Transfer",
      "type": "event"
    },
    {
      "inputs": [],
      "name": "FIELD_SIZE",
      "outputs": [
        {
          "internalType": "uint256",
          "name": "",
          "type": "uint256"
        }
      ],
      "stateMutability": "view",
      "type": "function"
    },
    {
      "inputs": [],
      "name": "MAX_EXT_AMOUNT",
      "outputs": [
        {
          "internalType": "int256",
          "name": "",
          "type": "int256"
        }
      ],
      "stateMutability": "view",
      "type": "function"
    },
    {
      "inputs": [],
      "name": "ROOT_HISTORY_SIZE",
      "outputs": [
        {
          "internalType": "uint32",
          "name": "",
          "type": "uint32"
        }
      ],
      "stateMutability": "view",
      "type": "function"
    },
    {
      "inputs": [],
      "name": "ZERO_VALUE",
      "outputs": [
        {
          "internalType": "uint256",
          "name": "",
          "type": "uint256"
        }
      ],
      "stateMutability": "view",
      "type": "function"
    },
    {
      "inputs": [
        {
          "internalType": "address",
          "name": "owner",
          "type": "address"
        },
        {
          "internalType": "address",
          "name": "spender",
          "type": "address"
        }
      ],
      "name": "allowance",
      "outputs": [
        {
          "internalType": "uint256",
          "name": "",
          "type": "uint256"
        }
      ],
      "stateMutability": "view",
      "type": "function"
    },
    {
      "inputs": [
        {
          "internalType": "address",
          "name": "spender",
          "type": "address"
        },
        {
          "internalType": "uint256",
          "name": "amount",
          "type": "uint256"
        }
      ],
      "name": "approve",
      "outputs": [
        {
          "internalType": "bool",
          "name": "",
          "type": "bool"
        }
      ],
      "stateMutability": "nonpayable",
      "type": "function"
    },
    {
      "inputs": [
        {
          "internalType": "address",
          "name": "account",
          "type": "address"
        }
      ],
      "name": "balanceOf",
      "outputs": [
        {
          "internalType": "uint256",
          "name": "",
          "type": "uint256"
        }
      ],
      "stateMutability": "view",
      "type": "function"
    },
    {
      "inputs": [
        {
          "internalType": "address",
          "name": "_account",
          "type": "address"
        },
        {
          "internalType": "uint256",
          "name": "_amount",
          "type": "uint256"
        }
      ],
      "name": "burn",
      "outputs": [],
      "stateMutability": "nonpayable",
      "type": "function"
    },
    {
      "inputs": [],
      "name": "currentRootIndex",
      "outputs": [
        {
          "internalType": "uint32",
          "name": "",
          "type": "uint32"
        }
      ],
      "stateMutability": "view",
      "type": "function"
    },
    {
      "inputs": [],
      "name": "decimals",
      "outputs": [
        {
          "internalType": "uint8",
          "name": "",
          "type": "uint8"
        }
      ],
      "stateMutability": "view",
      "type": "function"
    },
    {
      "inputs": [
        {
          "internalType": "address",
          "name": "spender",
          "type": "address"
        },
        {
          "internalType": "uint256",
          "name": "subtractedValue",
          "type": "uint256"
        }
      ],
      "name": "decreaseAllowance",
      "outputs": [
        {
          "internalType": "bool",
          "name": "",
          "type": "bool"
        }
      ],
      "stateMutability": "nonpayable",
      "type": "function"
    },
    {
      "inputs": [
        {
          "internalType": "uint256",
          "name": "",
          "type": "uint256"
        }
      ],
      "name": "filledSubtrees",
      "outputs": [
        {
          "internalType": "bytes32",
          "name": "",
          "type": "bytes32"
        }
      ],
      "stateMutability": "view",
      "type": "function"
    },
    {
      "inputs": [],
      "name": "getLastRoot",
      "outputs": [
        {
          "internalType": "bytes32",
          "name": "",
          "type": "bytes32"
        }
      ],
      "stateMutability": "view",
      "type": "function"
    },
    {
      "inputs": [
        {
          "internalType": "bytes32",
          "name": "_left",
          "type": "bytes32"
        },
        {
          "internalType": "bytes32",
          "name": "_right",
          "type": "bytes32"
        }
      ],
      "name": "hashLeftRight",
      "outputs": [
        {
          "internalType": "bytes32",
          "name": "",
          "type": "bytes32"
        }
      ],
      "stateMutability": "view",
      "type": "function"
    },
    {
      "inputs": [],
      "name": "hasher",
      "outputs": [
        {
          "internalType": "contract IHasher",
          "name": "",
          "type": "address"
        }
      ],
      "stateMutability": "view",
      "type": "function"
    },
    {
      "inputs": [
        {
          "internalType": "address",
          "name": "spender",
          "type": "address"
        },
        {
          "internalType": "uint256",
          "name": "addedValue",
          "type": "uint256"
        }
      ],
      "name": "increaseAllowance",
      "outputs": [
        {
          "internalType": "bool",
          "name": "",
          "type": "bool"
        }
      ],
      "stateMutability": "nonpayable",
      "type": "function"
    },
    {
      "inputs": [
        {
          "internalType": "bytes32",
          "name": "_root",
          "type": "bytes32"
        }
      ],
      "name": "isKnownRoot",
      "outputs": [
        {
          "internalType": "bool",
          "name": "",
          "type": "bool"
        }
      ],
      "stateMutability": "view",
      "type": "function"
    },
    {
      "inputs": [
        {
          "internalType": "bytes32",
          "name": "_nullifierHash",
          "type": "bytes32"
        }
      ],
      "name": "isSpent",
      "outputs": [
        {
          "internalType": "bool",
          "name": "",
          "type": "bool"
        }
      ],
      "stateMutability": "view",
      "type": "function"
    },
    {
      "inputs": [],
      "name": "levels",
      "outputs": [
        {
          "internalType": "uint32",
          "name": "",
          "type": "uint32"
        }
      ],
      "stateMutability": "view",
      "type": "function"
    },
    {
      "inputs": [
        {
          "internalType": "address",
          "name": "_account",
          "type": "address"
        },
        {
          "internalType": "uint256",
          "name": "_amount",
          "type": "uint256"
        }
      ],
      "name": "mint",
      "outputs": [],
      "stateMutability": "nonpayable",
      "type": "function"
    },
    {
      "inputs": [],
      "name": "name",
      "outputs": [
        {
          "internalType": "string",
          "name": "",
          "type": "string"
        }
      ],
      "stateMutability": "view",
      "type": "function"
    },
    {
      "inputs": [],
      "name": "nextIndex",
      "outputs": [
        {
          "internalType": "uint32",
          "name": "",
          "type": "uint32"
        }
      ],
      "stateMutability": "view",
      "type": "function"
    },
    {
      "inputs": [
        {
          "internalType": "bytes32",
          "name": "",
          "type": "bytes32"
        }
      ],
      "name": "nullifierHashes",
      "outputs": [
        {
          "internalType": "bool",
          "name": "",
          "type": "bool"
        }
      ],
      "stateMutability": "view",
      "type": "function"
    },
    {
      "inputs": [
        {
          "internalType": "uint256",
          "name": "",
          "type": "uint256"
        }
      ],
      "name": "roots",
      "outputs": [
        {
          "internalType": "bytes32",
          "name": "",
          "type": "bytes32"
        }
      ],
      "stateMutability": "view",
      "type": "function"
    },
    {
      "inputs": [],
      "name": "stabilityPoolAddress",
      "outputs": [
        {
          "internalType": "address",
          "name": "",
          "type": "address"
        }
      ],
      "stateMutability": "view",
      "type": "function"
    },
    {
      "inputs": [],
      "name": "symbol",
      "outputs": [
        {
          "internalType": "string",
          "name": "",
          "type": "string"
        }
      ],
      "stateMutability": "view",
      "type": "function"
    },
    {
      "inputs": [],
      "name": "totalSupply",
      "outputs": [
        {
          "internalType": "uint256",
          "name": "",
          "type": "uint256"
        }
      ],
      "stateMutability": "view",
      "type": "function"
    },
    {
      "inputs": [
        {
          "components": [
            {
              "components": [
                {
                  "internalType": "bytes",
                  "name": "proof",
                  "type": "bytes"
                },
                {
                  "internalType": "uint256[]",
                  "name": "pubSignals",
                  "type": "uint256[]"
                },
                {
                  "internalType": "bytes32",
                  "name": "root",
                  "type": "bytes32"
                },
                {
                  "internalType": "bytes32[]",
                  "name": "inputNullifiers",
                  "type": "bytes32[]"
                },
                {
                  "internalType": "bytes32[2]",
                  "name": "outputCommitments",
                  "type": "bytes32[2]"
                },
                {
                  "internalType": "uint256",
                  "name": "publicAmount",
                  "type": "uint256"
                },
                {
                  "internalType": "bytes32",
                  "name": "extDataHash",
                  "type": "bytes32"
                }
              ],
              "internalType": "struct ShieldedPool.ProofArguments",
              "name": "proofArguments",
              "type": "tuple"
            },
            {
              "components": [
                {
                  "internalType": "address",
                  "name": "recipient",
                  "type": "address"
                },
                {
                  "internalType": "int256",
                  "name": "extAmount",
                  "type": "int256"
                },
                {
                  "internalType": "bytes",
                  "name": "encryptedOutput1",
                  "type": "bytes"
                },
                {
                  "internalType": "bytes",
                  "name": "encryptedOutput2",
                  "type": "bytes"
                }
              ],
              "internalType": "struct ShieldedPool.ExtData",
              "name": "extData",
              "type": "tuple"
            }
          ],
          "internalType": "struct ShieldedPool.Proof",
          "name": "_proof",
          "type": "tuple"
        }
      ],
      "name": "transact",
      "outputs": [],
      "stateMutability": "nonpayable",
      "type": "function"
    },
    {
      "inputs": [
        {
          "internalType": "address",
          "name": "to",
          "type": "address"
        },
        {
          "internalType": "uint256",
          "name": "amount",
          "type": "uint256"
        }
      ],
      "name": "transfer",
      "outputs": [
        {
          "internalType": "bool",
          "name": "",
          "type": "bool"
        }
      ],
      "stateMutability": "nonpayable",
      "type": "function"
    },
    {
      "inputs": [
        {
          "components": [
            {
              "components": [
                {
                  "internalType": "bytes",
                  "name": "proof",
                  "type": "bytes"
                },
                {
                  "internalType": "uint256[]",
                  "name": "pubSignals",
                  "type": "uint256[]"
                },
                {
                  "internalType": "bytes32",
                  "name": "root",
                  "type": "bytes32"
                },
                {
                  "internalType": "bytes32[]",
                  "name": "inputNullifiers",
                  "type": "bytes32[]"
                },
                {
                  "internalType": "bytes32[2]",
                  "name": "outputCommitments",
                  "type": "bytes32[2]"
                },
                {
                  "internalType": "uint256",
                  "name": "publicAmount",
                  "type": "uint256"
                },
                {
                  "internalType": "bytes32",
                  "name": "extDataHash",
                  "type": "bytes32"
                }
              ],
              "internalType": "struct ShieldedPool.ProofArguments",
              "name": "proofArguments",
              "type": "tuple"
            },
            {
              "components": [
                {
                  "internalType": "address",
                  "name": "recipient",
                  "type": "address"
                },
                {
                  "internalType": "int256",
                  "name": "extAmount",
                  "type": "int256"
                },
                {
                  "internalType": "bytes",
                  "name": "encryptedOutput1",
                  "type": "bytes"
                },
                {
                  "internalType": "bytes",
                  "name": "encryptedOutput2",
                  "type": "bytes"
                }
              ],
              "internalType": "struct ShieldedPool.ExtData",
              "name": "extData",
              "type": "tuple"
            }
          ],
          "internalType": "struct ShieldedPool.Proof",
          "name": "_proof",
          "type": "tuple"
        }
      ],
      "name": "transfer",
      "outputs": [],
      "stateMutability": "nonpayable",
      "type": "function"
    },
    {
      "inputs": [
        {
          "internalType": "address",
          "name": "from",
          "type": "address"
        },
        {
          "internalType": "address",
          "name": "to",
          "type": "address"
        },
        {
          "internalType": "uint256",
          "name": "amount",
          "type": "uint256"
        }
      ],
      "name": "transferFrom",
      "outputs": [
        {
          "internalType": "bool",
          "name": "",
          "type": "bool"
        }
      ],
      "stateMutability": "nonpayable",
      "type": "function"
    },
    {
      "inputs": [],
      "name": "troveManagerAddress",
      "outputs": [
        {
          "internalType": "address",
          "name": "",
          "type": "address"
        }
      ],
      "stateMutability": "view",
      "type": "function"
    },
    {
      "inputs": [
        {
          "internalType": "bytes",
          "name": "proof",
          "type": "bytes"
        },
        {
          "internalType": "uint256[]",
          "name": "pubSignals",
          "type": "uint256[]"
        }
      ],
      "name": "verifyProof",
      "outputs": [
        {
          "internalType": "bool",
          "name": "",
          "type": "bool"
        }
      ],
      "stateMutability": "view",
      "type": "function"
    },
    {
      "inputs": [
        {
          "internalType": "uint256",
          "name": "i",
          "type": "uint256"
        }
      ],
      "name": "zeros",
      "outputs": [
        {
          "internalType": "bytes32",
          "name": "",
          "type": "bytes32"
        }
      ],
      "stateMutability": "pure",
      "type": "function"
    }
  ],
  "bytecode": "0x610100604052600280546001600160401b0319169055600160f81b6003553480156200002a57600080fd5b5060405162004a1e38038062004a1e8339810160408190526200004d9162000873565b604080518082018252600480825263169554d160e21b60208084018290528451808601909552918452908301529060058581816200008f565b60405180910390fd5b60208263ffffffff1610620000e75760405162461bcd60e51b815260206004820152601e60248201527f5f6c6576656c732073686f756c64206265206c657373207468616e2033320000604482015260640162000086565b63ffffffff90911660a0526001600160a01b03166080526200010862000144565b506008905062000119838262000962565b50600962000128828262000962565b5050506001600160a01b0391821660c0521660e0525062000a60565b60005b60a05163ffffffff168163ffffffff1610156200019a576200016f63ffffffff8216620001dc565b63ffffffff821660009081526020819052604090205580620001918162000a2e565b91505062000147565b5060a051620001af9063ffffffff16620001dc565b6000805260016020527fa6eef7e35abe7026729641147f7915573c7e97b47efa546f5f6e3230263bcb4955565b6000816000036200020e57507f2fe54c60d3acabf3343a35b6eba15db4821b340f76e741e2249685ed4899af6c919050565b816001036200023e57507f13e37f2d6cb86c78ccc1788607c2b199788c6bb0a615a21f2e7a8e88384222f8919050565b816002036200026e57507f217126fa352c326896e8c2803eec8fd63ad50cf65edfef27a41a9e32dc622765919050565b816003036200029e57507f0e28a61a9b3e91007d5a9e3ada18e1b24d6d230c618388ee5df34cacd7397eee919050565b81600403620002ce57507f27953447a6979839536badc5425ed15fadb0e292e9bc36f92f0aa5cfa5013587919050565b81600503620002fe57507f194191edbfb91d10f6a7afd315f33095410c7801c47175c2df6dc2cce0e3affc919050565b816006036200032e57507f1733dece17d71190516dbaf1927936fa643dc7079fc0cc731de9d6845a47741f919050565b816007036200035e57507f267855a7dc75db39d81d17f95d0a7aa572bf5ae19f4db0e84221d2b2ef999219919050565b816008036200038e57507f1184e11836b4c36ad8238a340ecc0985eeba665327e33e9b0e3641027c27620d919050565b81600903620003be57507f0702ab83a135d7f55350ab1bfaa90babd8fc1d2b3e6a7215381a7b2213d6c5ce919050565b81600a03620003ee57507f2eecc0de814cfd8c57ce882babb2e30d1da56621aef7a47f3291cffeaec26ad7919050565b81600b036200041e57507f280bc02145c155d5833585b6c7b08501055157dd30ce005319621dc462d33b47919050565b81600c036200044e57507f045132221d1fa0a7f4aed8acd2cbec1e2189b7732ccb2ec272b9c60f0d5afc5b919050565b81600d036200047e57507f27f427ccbf58a44b1270abbe4eda6ba53bd6ac4d88cf1e00a13c4371ce71d366919050565b81600e03620004ae57507f1617eaae5064f26e8f8a6493ae92bfded7fde71b65df1ca6d5dcec0df70b2cef919050565b81600f03620004de57507f20c6b400d0ea1b15435703c31c31ee63ad7ba5c8da66cec2796feacea575abca919050565b816010036200050e57507f09589ddb438723f53a8e57bdada7c5f8ed67e8fece3889a73618732965645eec919050565b816011036200053d57507e64b6a738a5ff537db7b220f3394f0ecbd35bfd355c5425dc1166bf3236079b919050565b816012036200056d57507f095de56281b1d5055e897c3574ff790d5ee81dbc5df784ad2d67795e557c9e9f919050565b816013036200059d57507f11cf2e2887aa21963a6ec14289183efe4d4c60f14ecd3d6fe0beebdf855a9b63919050565b81601403620005cd57507f2b0f6fc0179fa65b6f73627c0e1e84c7374d2eaec44c9a48f2571393ea77bcbb919050565b81601503620005fd57507f16fdb637c2abf9c0f988dbf2fd64258c46fb6a273d537b2cf1603ea460b13279919050565b816016036200062d57507f21bbd7e944f6124dad4c376df9cc12e7ca66e47dff703ff7cedb1a454edcf0ff919050565b816017036200065d57507f2784f8220b1c963e468f590f137baaa1625b3b92a27ad9b6e84eb0d3454d9962919050565b816018036200068d57507f16ace1a65b7534142f8cc1aad810b3d6a7a74ca905d9c275cb98ba57e509fc10919050565b81601903620006bd57507f2328068c6a8c24265124debd8fe10d3f29f0665ea725a65e3638f6192a96a013919050565b81601a03620006ed57507f2ddb991be1f028022411b4c4d2c22043e5e751c120736f00adf54acab1c9ac14919050565b81601b036200071d57507f0113798410eaeb95056a464f70521eb58377c0155f2fe518a5594d38cc209cc0919050565b81601c036200074d57507f202d1ae61526f0d0d01ef80fb5d4055a7af45721024c2c24cffd6a3798f54d50919050565b81601d036200077d57507f23ab323453748129f2765f79615022f5bebd6f4096a796300aab049a60b0f187919050565b81601e03620007ad57507f1f15585f8947e378bcf8bd918716799da909acdb944c57150b1eb4565fda8aa0919050565b81601f03620007dd57507f1eb064b21055ac6a350cf41eb30e4ce2cb19680217df3a243617c2838185ad06919050565b816020036200080d57507f25a90efc49af54a5b7154a6eaba978dcf04796b4984fe54be8d4ea8579e1f1e6919050565b60405162461bcd60e51b815260206004820152601360248201527f496e646578206f7574206f6620626f756e647300000000000000000000000000604482015260640162000086565b919050565b80516001600160a01b03811681146200085657600080fd5b6000806000606084860312156200088957600080fd5b62000894846200085b565b9250620008a4602085016200085b565b9150620008b4604085016200085b565b90509250925092565b634e487b7160e01b600052604160045260246000fd5b600181811c90821680620008e857607f821691505b6020821081036200090957634e487b7160e01b600052602260045260246000fd5b50919050565b601f8211156200095d57600081815260208120601f850160051c81016020861015620009385750805b601f850160051c820191505b81811015620009595782815560010162000944565b5050505b505050565b81516001600160401b038111156200097e576200097e620008bd565b62000996816200098f8454620008d3565b846200090f565b602080601f831160018114620009ce5760008415620009b55750858301515b600019600386901b1c1916600185901b17855562000959565b600085815260208120601f198616915b82811015620009ff57888601518255948401946001909101908401620009de565b508582101562000a1e5787850151600019600388901b60f8161c191681555b5050505050600190811b01905550565b600063ffffffff80831681810362000a5657634e487b7160e01b600052601160045260246000fd5b6001019392505050565b60805160a05160c05160e051613f6162000abd600039600081816102510152612cfa0152600081816103860152612bb101526000818161034a015281816134d7015261359401526000818161051e0152611ed90152613f616000f3fe608060405234801561001057600080fd5b50600436106102065760003560e01c806390eeb02b1161011a578063dd62ed3e116100ad578063e8983d9a1161007c578063e8983d9a146104df578063ec732959146104f2578063ed33639f14610519578063f178e47c14610540578063fc7e9c6f1461056057600080fd5b8063dd62ed3e14610483578063e447109414610496578063e5285dcc146104a9578063e8295588146104cc57600080fd5b8063a9059cbb116100e9578063a9059cbb1461042b578063ba70f7571461043e578063c2b40ae41461045b578063cd87a3b41461047b57600080fd5b806390eeb02b146103ed57806395d89b41146103fd5780639dc29fac14610405578063a457c2d71461041857600080fd5b806338bf282e1161019d5780634ecf518b1161016c5780634ecf518b146103455780635a4d28bb146103815780636d9833e3146103a857806370a08231146103bb5780637fe24ffe146103e457600080fd5b806338bf282e146102f5578063395093511461030857806340c10f191461031b578063414a37ba1461033057600080fd5b806318160ddd116101d957806318160ddd146102ae5780631e8e1e13146102c057806323b872dd146102d3578063313ce567146102e657600080fd5b806306fdde031461020b578063095ea7b3146102295780630b622ab21461024c57806317cc915c1461028b575b600080fd5b610213610578565b6040516102209190613704565b60405180910390f35b61023c610237366004613769565b61060a565b6040519015158152602001610220565b6102737f000000000000000000000000000000000000000000000000000000000000000081565b6040516001600160a01b039091168152602001610220565b61023c610299366004613793565b60046020526000908152604090205460ff1681565b6007545b604051908152602001610220565b61023c6102ce366004613873565b610624565b61023c6102e136600461392b565b611dc9565b60405160128152602001610220565b6102b2610303366004613967565b611ded565b61023c610316366004613769565b611f5f565b61032e610329366004613769565b611f81565b005b6102b2600080516020613eec83398151915281565b61036c7f000000000000000000000000000000000000000000000000000000000000000081565b60405163ffffffff9091168152602001610220565b6102737f000000000000000000000000000000000000000000000000000000000000000081565b61023c6103b6366004613793565b611f97565b6102b26103c9366004613989565b6001600160a01b031660009081526005602052604090205490565b6102b260035481565b60025461036c9063ffffffff1681565b610213612015565b61032e610413366004613769565b612024565b61023c610426366004613769565b612036565b61023c610439366004613769565b6120b1565b60025463ffffffff166000908152600160205260409020546102b2565b6102b2610469366004613793565b60016020526000908152604090205481565b61036c606481565b6102b26104913660046139a4565b6120bf565b61032e6104a43660046139d7565b6120ea565b61023c6104b7366004613793565b60009081526004602052604090205460ff1690565b6102b26104da366004613793565b6120f3565b61032e6104ed3660046139d7565b612746565b6102b27f2fe54c60d3acabf3343a35b6eba15db4821b340f76e741e2249685ed4899af6c81565b6102737f000000000000000000000000000000000000000000000000000000000000000081565b6102b261054e366004613793565b60006020819052908152604090205481565b60025461036c90640100000000900463ffffffff1681565b60606008805461058790613a12565b80601f01602080910402602001604051908101604052809291908181526020018280546105b390613a12565b80156106005780601f106105d557610100808354040283529160200191610600565b820191906000526020600020905b8154815290600101906020018083116105e357829003601f168201915b5050505050905090565b600033610618818585612863565b60019150505b92915050565b600080611d58565b600080600184846000805b8215610659575092938183058581029091039350909181830290039081610637565b505050600181111561066a57600080fd5b505060008112156106785783015b9392505050565b60405181602084028301815160208301925060005b828410156106c557818552600080516020613eec833981519152845183099150602085019450602084019350610694565b6106dd600080516020613eec8339815191528361062c565b91506020850394506020840393508592505b8284111561073457600080516020613eec833981519152855183099050600080516020613eec83398151915284518309818552601f19958601959094019391506106ef565b5090915250505050565b600080516020613eec833981519152811061075d576000805260206000f35b50565b610320815114610774576000805260206000f35b61078261026082015161073e565b61079061028082015161073e565b61079e6102a082015161073e565b6107ac6102c082015161073e565b6107ba6102e082015161073e565b6107c861030082015161073e565b61075d61032082015161073e565b600080602085015161038085015260408501516103a085015260608501516103c085015260808501516103e085015260a085015161040085015260c085015161042085015260e085015161044085015260208301516104608501526020800183015161048085015260406020018301516104a085015260606020018301516104c085015260806020018301516104e085015260a0602001830151610500850152600080516020613eec8339815191526101a0610380860120069050806020850152600080516020613eec833981519152602080860120066040850152600080516020613eec833981519152604060e0850120066000850152600080516020613eec83398151915260c0610120850120069150816060850152600080516020613eec83398151915282820960a085015250600080516020613eec8339815191528182099050600080516020613eec8339815191528182099050600080516020613eec8339815191528182099050600080516020613eec8339815191528182099050600080516020613eec8339815191528182099050600080516020613eec8339815191528182099050600080516020613eec8339815191528182099050600080516020613eec8339815191528182099050600080516020613eec8339815191528182099050600080516020613eec8339815191528182099050600080516020613eec8339815191528182099050600080516020613eec8339815191528182099050600080516020613eec8339815191528182099050600080516020613eec8339815191528182099050600080516020613eec8339815191528182099050600080516020613eec8339815191528182099050806080840152600080516020613eec8339815191528060018303010690508061026084015280610280840152600080516020613eec83398151915260e0610260840120068060c0850152600080516020613eec83398151915281820991508160e0850152600080516020613eec833981519152818309915081610100850152600080516020613eec833981519152818309915081610120850152600080516020613eec833981519152818309915081610140850152600080516020613eec833981519152818309610160850152505060806101e09190910120600080516020613eec83398151915290066101809091015250565b6001600080516020613eec83398151915280600080516020613eec83398151915283606086015103010662010000096102a0830152600080516020613eec833981519152600080516020613f0c83398151915282099050600080516020613eec83398151915280600080516020613eec83398151915283606086015103010662010000096102c0830152600080516020613eec833981519152600080516020613f0c83398151915282099050600080516020613eec83398151915280600080516020613eec83398151915283606086015103010662010000096102e0830152600080516020613eec833981519152600080516020613f0c83398151915282099050600080516020613eec83398151915280600080516020613eec8339815191528360608601510301066201000009610300830152600080516020613eec833981519152600080516020613f0c83398151915282099050600080516020613eec83398151915280600080516020613eec8339815191528360608601510301066201000009610320830152600080516020613eec833981519152600080516020613f0c83398151915282099050600080516020613eec83398151915280600080516020613eec8339815191528360608601510301066201000009610340830152600080516020613eec833981519152600080516020613f0c83398151915282099050600080516020613eec83398151915280600080516020613eec8339815191528360608601510301066201000009610360830152610d7c6008610280840161067f565b61026082015160019150600080516020613eec833981519152816102a0850151096102a0840152600080516020613eec833981519152600080516020613f0c83398151915283099150600080516020613eec83398151915280826102c08601510983096102c0840152600080516020613eec833981519152600080516020613f0c83398151915283099150600080516020613eec83398151915280826102e08601510983096102e0840152600080516020613eec833981519152600080516020613f0c83398151915283099150600080516020613eec8339815191528082610300860151098309610300840152600080516020613eec833981519152600080516020613f0c83398151915283099150600080516020613eec8339815191528082610320860151098309610320840152600080516020613eec833981519152600080516020613f0c83398151915283099150600080516020613eec8339815191528082610340860151098309610340840152600080516020613eec833981519152600080516020613f0c83398151915283099150600080516020613eec8339815191528082610360860151098309610360840152505050565b6000600080516020613eec83398151915280600080516020613eec83398151915260208601516102a086015109830301069050600080516020613eec83398151915280600080516020613eec83398151915260408601516102c086015109830301069050600080516020613eec83398151915280600080516020613eec83398151915260608601516102e086015109830301069050600080516020613eec83398151915280600080516020613eec833981519152608086015161030086015109830301069050600080516020613eec83398151915280600080516020613eec83398151915260a086015161032086015109830301069050600080516020613eec83398151915280600080516020613eec83398151915260c086015161034086015109830301069050600080516020613eec83398151915280600080516020613eec83398151915260e086015161036086015109830301069050806101a0830152505050565b6000806000600080516020613eec8339815191526101a0860151610320860151089250600080516020613eec83398151915260208601516102c0860151099150600080516020613eec83398151915261026085015183089150600080516020613eec833981519152604086015183089150600080516020613eec83398151915260208601516102e0860151099050600080516020613eec83398151915261028085015182089050600080516020613eec833981519152604086015182089050600080516020613eec8339815191528183099150600080516020613eec83398151915260408601516102a0860151089050600080516020613eec8339815191528183099150600080516020613eec83398151915261030085015183099150600080516020613eec833981519152600086015183099150600080516020613eec83398151915260008601516102a0870151099050600080516020613eec833981519152600086015182099050600080516020613eec833981519152818308915050600080516020613eec83398151915281600080516020613eec83398151915284010306915050600080516020613eec83398151915261028084015182099050806101c0840152505050565b6040518151815260208201516020820152825160408201526020830151606082015260408260808360066107d05a03fa9050806112a4576000805260206000f35b505050565b6000604051835181526020840151602082015284604082015260408160608360076107d05a03fa9150816112e1576000805260206000f35b825160408201526020830151606082015260408360808360066107d05a03fa91505080611312576000805260206000f35b50505050565b600060405183815284602082015285604082015260408160608360076107d05a03fa91508161134b576000805260206000f35b825160408201526020830151606082015260408360808360066107d05a03fa9150508061137c576000805260206000f35b5050505050565b600060405183815284602082015285604082015260408360608360076107d05a03fa9150508061137c576000805260206000f35b6101e082016113d46101e083018281518152602091820151910152565b6112a46101808401516102208401836112a9565b6000806102208401600080516020613eec83398151915260c0860151610260860151099250611459837f2ddc994797d91a500f26a783c8a5dc086581e0521381db2c21925e27694874877f2323e6874dcda43fc14307a17c47efcfbef63cb4c42d19c14b0fbfc1abc00fc884611383565b600080516020613eec833981519152610280850151840992506114be837f2b2b9122eb9774ff0ad142aad3a953d50a41c13c292a38db53ac7fd560b92cd37f10510b169e85a07d4fbce568426c85a71f397aa12f257b027dbe4df9cda58dd684611318565b600080516020613eec83398151915260c0860151610280860151099250611527837f1e35fde93f9a04d3c3a72eb6eaa794d6372c978f109777c60ecb9e17c8f673107f15c890d819ded7aa76ad4e2d6468d2014eefe30beea16ddd54dd303fef649cfb84611318565b600080516020613eec83398151915260c08601516102a0860151099250611590837f28007da5fda51de6c79b39c80cc8dbece2d1c660d0ff108373db5ab628871b517f1a041566781b80bba21b3e806c6f9f46e6887a34cfe5839f45372b656e2fca4284611318565b60c085015192506115e3837f0fe73d5b8ffb156c08cc7c1205d3d8313573f46a72ce2ca8b22d446890cbf3777f1aa50f703048969668d0027c7072e98f605657452600795aae75bc2b71f20f9384611318565b600080516020613eec83398151915260a0860151610260860151089250600080516020613eec833981519152604086015184089250600080516020613eec83398151915260a08601516002099150600080516020613eec83398151915261028085015183089150600080516020613eec833981519152604086015183089150600080516020613eec8339815191528284099250600080516020613eec83398151915260a08601516003099150600080516020613eec8339815191526102a085015183089150600080516020613eec833981519152604086015183089150600080516020613eec8339815191528284099250600080516020613eec833981519152600086015184099250600080516020613eec83398151915260c086015184099250600080516020613eec83398151915260008601516102a0870151099150600080516020613eec833981519152600086015183099150600080516020613eec83398151915260c086015183099150600080516020613eec8339815191528284089250600080516020613eec8339815191526101808601518408925061178c8360e08601836112a9565b600080516020613eec8339815191526102c08501516020870151099250600080516020613eec83398151915261026085015184089250600080516020613eec833981519152604086015184089250600080516020613eec8339815191526102e08501516020870151099150600080516020613eec83398151915261028085015183089150600080516020613eec833981519152604086015183089150600080516020613eec8339815191528284099250600080516020613eec833981519152600086015184099250600080516020613eec83398151915260c086015184099250600080516020613eec833981519152602086015184099250600080516020613eec8339815191526103008501518409600080516020613eec8339815191529081030692506118fc837f13310578207a2eddbf4378005d9996e03ad82c25b936ab2c914966cddbb30ad47f19ab8ca4d4765434b3e61e0ba4cc4ea0e361ff95f17eb9932e5adbfe2bbc967284611318565b61190a610120850182611263565b60808501519250611920836101608601836112a9565b600080516020613eec8339815191528384099250611943836101a08601836112a9565b61195560e086015160208601836112a9565b61196861010086015160608601836112a9565b61197b61012086015160a08601836112a9565b6119cc6101408601517f109c3754f56410b9eb3cbe8b0f1127197d3f236714c45f87eb40db6ed1ad92fd7f08c75458384e071fc90e4e16281b5d43d24369349c431eb20bab970cb189f5d784611318565b611a1d6101608601517f0355ca45fc72a1944e023d445a4717754cf0e92e71115b03a41bb15d5fea31ef7f18831fa78d7f555edb058f6780fa3cca509f215c05994daf36bec803d49db40484611318565b6101c08501519250600080516020613eec8339815191528060c08701516103208701510984089250600080516020613eec8339815191528060e08701516102608701510984089250600080516020613eec833981519152806101008701516102808701510984089250600080516020613eec833981519152806101208701516102a08701510984089250600080516020613eec833981519152806101408701516102c08701510984089250600080516020613eec833981519152806101608701516102e08701510984089250600080516020613eec83398151915280610180870151610300870151098408600080516020613eec833981519152908103069250611b2b836002600184611318565b60608501519250611b41836101e08601836112a9565b600080516020613eec8339815191526060860151610180870151099250600080516020613eec833981519152600080516020613f0c8339815191528409925061137c836102208601836112a9565b60006040516101e0830151815260206101e08401015160208201527f26186a2d65ee4d2f9c9a5b91f86597d35f192cd120caf7e935d8443d1938e23d60408201527f30441fd1b5d3370482c42152a8899027716989a6996c2535bc9f7fee8aaef79e60608201527f1970ea81dd6992adfbc571effb03503adbbb6a857f578403c6c40e22d65b3c0260808201527f054793348f12c0cf5622c340573cb277586319de359ab9389778f689786b1e4860a082015261022083015160c08201526020610220840101517f30644e72e131a029b85045b68181585d97816a916871ca8d3c208c16d87cfd47817f30644e72e131a029b85045b68181585d97816a916871ca8d3c208c16d87cfd47030690508060e0830152507f198e9393920d483a7260bfb731fb5d25f1aa493335a9e71297e485b7aef312c26101008201527f1800deef121f1e76426a00665e5c4479674322d4f75edadd46debd5cd992f6ed6101208201527f090689d0585ff075ec9e99ad690c3395bc4b313370b38ef355acdadcd122975b6101408201527f12c85ea5db8c6deb4aab71808dcb408fe3d1e7690c43d37b4ce6cc0166fa7daa6101608201526020816101808360086107d05a03fa90511692915050565b6040516103808101604052611d6c85610760565b611d778482876107d6565b611d8081610b3a565b611d8a8482610f34565b611d948186611099565b611d9e81866113b7565b611da881866113e8565b611db181611b8f565b61037f19909101604052600081905291505092915050565b600033611dd7858285612987565b611de28585856129fb565b506001949350505050565b6000600080516020613eec8339815191528310611e515760405162461bcd60e51b815260206004820181905260248201527f5f6c6566742073686f756c6420626520696e7369646520746865206669656c6460448201526064015b60405180910390fd5b600080516020613eec8339815191528210611eb85760405162461bcd60e51b815260206004820152602160248201527f5f72696768742073686f756c6420626520696e7369646520746865206669656c6044820152601960fa1b6064820152608401611e48565b611ec06136e6565b8381526020810183905260405163014cf2b360e51b81527f00000000000000000000000000000000000000000000000000000000000000006001600160a01b03169063299e566090611f16908490600401613a62565b602060405180830381865afa158015611f33573d6000803e3d6000fd5b505050506040513d601f19601f82011682018060405250810190611f579190613a93565b949350505050565b600033610618818585611f7283836120bf565b611f7c9190613ac2565b612863565b611f89612ba6565b611f938282612c2e565b5050565b6000818103611fa857506000919050565b60025463ffffffff16805b63ffffffff81166000908152600160205260409020548403611fd9575060019392505050565b8063ffffffff16600003611feb575060645b80611ff581613ad5565b9150508163ffffffff168163ffffffff1603611fb3575060009392505050565b60606009805461058790613a12565b61202c612cef565b611f938282612d76565b6000338161204482866120bf565b9050838110156120a45760405162461bcd60e51b815260206004820152602560248201527f45524332303a2064656372656173656420616c6c6f77616e63652062656c6f77604482015264207a65726f60d81b6064820152608401611e48565b611de28286868403612863565b6000336106188185856129fb565b6001600160a01b03918216600090815260066020908152604080832093909416825291909152205490565b61075d81612eaa565b60008160000361212457507f2fe54c60d3acabf3343a35b6eba15db4821b340f76e741e2249685ed4899af6c919050565b8160010361215357507f13e37f2d6cb86c78ccc1788607c2b199788c6bb0a615a21f2e7a8e88384222f8919050565b8160020361218257507f217126fa352c326896e8c2803eec8fd63ad50cf65edfef27a41a9e32dc622765919050565b816003036121b157507f0e28a61a9b3e91007d5a9e3ada18e1b24d6d230c618388ee5df34cacd7397eee919050565b816004036121e057507f27953447a6979839536badc5425ed15fadb0e292e9bc36f92f0aa5cfa5013587919050565b8160050361220f57507f194191edbfb91d10f6a7afd315f33095410c7801c47175c2df6dc2cce0e3affc919050565b8160060361223e57507f1733dece17d71190516dbaf1927936fa643dc7079fc0cc731de9d6845a47741f919050565b8160070361226d57507f267855a7dc75db39d81d17f95d0a7aa572bf5ae19f4db0e84221d2b2ef999219919050565b8160080361229c57507f1184e11836b4c36ad8238a340ecc0985eeba665327e33e9b0e3641027c27620d919050565b816009036122cb57507f0702ab83a135d7f55350ab1bfaa90babd8fc1d2b3e6a7215381a7b2213d6c5ce919050565b81600a036122fa57507f2eecc0de814cfd8c57ce882babb2e30d1da56621aef7a47f3291cffeaec26ad7919050565b81600b0361232957507f280bc02145c155d5833585b6c7b08501055157dd30ce005319621dc462d33b47919050565b81600c0361235857507f045132221d1fa0a7f4aed8acd2cbec1e2189b7732ccb2ec272b9c60f0d5afc5b919050565b81600d0361238757507f27f427ccbf58a44b1270abbe4eda6ba53bd6ac4d88cf1e00a13c4371ce71d366919050565b81600e036123b657507f1617eaae5064f26e8f8a6493ae92bfded7fde71b65df1ca6d5dcec0df70b2cef919050565b81600f036123e557507f20c6b400d0ea1b15435703c31c31ee63ad7ba5c8da66cec2796feacea575abca919050565b8160100361241457507f09589ddb438723f53a8e57bdada7c5f8ed67e8fece3889a73618732965645eec919050565b8160110361244257507e64b6a738a5ff537db7b220f3394f0ecbd35bfd355c5425dc1166bf3236079b919050565b8160120361247157507f095de56281b1d5055e897c3574ff790d5ee81dbc5df784ad2d67795e557c9e9f919050565b816013036124a057507f11cf2e2887aa21963a6ec14289183efe4d4c60f14ecd3d6fe0beebdf855a9b63919050565b816014036124cf57507f2b0f6fc0179fa65b6f73627c0e1e84c7374d2eaec44c9a48f2571393ea77bcbb919050565b816015036124fe57507f16fdb637c2abf9c0f988dbf2fd64258c46fb6a273d537b2cf1603ea460b13279919050565b8160160361252d57507f21bbd7e944f6124dad4c376df9cc12e7ca66e47dff703ff7cedb1a454edcf0ff919050565b8160170361255c57507f2784f8220b1c963e468f590f137baaa1625b3b92a27ad9b6e84eb0d3454d9962919050565b8160180361258b57507f16ace1a65b7534142f8cc1aad810b3d6a7a74ca905d9c275cb98ba57e509fc10919050565b816019036125ba57507f2328068c6a8c24265124debd8fe10d3f29f0665ea725a65e3638f6192a96a013919050565b81601a036125e957507f2ddb991be1f028022411b4c4d2c22043e5e751c120736f00adf54acab1c9ac14919050565b81601b0361261857507f0113798410eaeb95056a464f70521eb58377c0155f2fe518a5594d38cc209cc0919050565b81601c0361264757507f202d1ae61526f0d0d01ef80fb5d4055a7af45721024c2c24cffd6a3798f54d50919050565b81601d0361267657507f23ab323453748129f2765f79615022f5bebd6f4096a796300aab049a60b0f187919050565b81601e036126a557507f1f15585f8947e378bcf8bd918716799da909acdb944c57150b1eb4565fda8aa0919050565b81601f036126d457507f1eb064b21055ac6a350cf41eb30e4ce2cb19680217df3a243617c2838185ad06919050565b8160200361270357507f25a90efc49af54a5b7154a6eaba978dcf04796b4984fe54be8d4ea8579e1f1e6919050565b60405162461bcd60e51b8152602060048201526013602482015272496e646578206f7574206f6620626f756e647360681b6044820152606401611e48565b919050565b60006127556020830183613af5565b6020013513156127955761277a33306127716020850185613af5565b60200135612987565b612795333061278c6020850185613af5565b602001356129fb565b61279e81612eaa565b60006127ad6020830183613af5565b60200135121561075d5760006127c66020830183613af5565b6127d4906020810190613989565b6001600160a01b03160361282a5760405162461bcd60e51b815260206004820152601e60248201527f43616e277420776974686472617720746f207a65726f206164647265737300006044820152606401611e48565b611f933061283b6020840184613af5565b612849906020810190613989565b6128566020850185613af5565b602001356102e190613b15565b6001600160a01b0383166128c55760405162461bcd60e51b8152602060048201526024808201527f45524332303a20617070726f76652066726f6d20746865207a65726f206164646044820152637265737360e01b6064820152608401611e48565b6001600160a01b0382166129265760405162461bcd60e51b815260206004820152602260248201527f45524332303a20617070726f766520746f20746865207a65726f206164647265604482015261737360f01b6064820152608401611e48565b6001600160a01b0383811660008181526006602090815260408083209487168084529482529182902085905590518481527f8c5be1e5ebec7d5bd14f71427d1e84f3dd0314c0f7b2291e5b200ac8c7c3b925910160405180910390a3505050565b600061299384846120bf565b9050600019811461131257818110156129ee5760405162461bcd60e51b815260206004820152601d60248201527f45524332303a20696e73756666696369656e7420616c6c6f77616e63650000006044820152606401611e48565b6113128484848403612863565b6001600160a01b038316612a5f5760405162461bcd60e51b815260206004820152602560248201527f45524332303a207472616e736665722066726f6d20746865207a65726f206164604482015264647265737360d81b6064820152608401611e48565b6001600160a01b038216612ac15760405162461bcd60e51b815260206004820152602360248201527f45524332303a207472616e7366657220746f20746865207a65726f206164647260448201526265737360e81b6064820152608401611e48565b6001600160a01b03831660009081526005602052604090205481811015612b395760405162461bcd60e51b815260206004820152602660248201527f45524332303a207472616e7366657220616d6f756e7420657863656564732062604482015265616c616e636560d01b6064820152608401611e48565b6001600160a01b0380851660008181526005602052604080822086860390559286168082529083902080548601905591517fddf252ad1be2c89b69c2b068fc378daa952ba7f163c4a11628f55a4df523b3ef90612b999086815260200190565b60405180910390a3611312565b336001600160a01b037f00000000000000000000000000000000000000000000000000000000000000001614612c2c5760405162461bcd60e51b815260206004820152602560248201527f4c555344546f6b656e3a2043616c6c6572206973206e6f742054726f76654d616044820152643730b3b2b960d91b6064820152608401611e48565b565b6001600160a01b038216612c845760405162461bcd60e51b815260206004820152601f60248201527f45524332303a206d696e7420746f20746865207a65726f2061646472657373006044820152606401611e48565b8060076000828254612c969190613ac2565b90915550506001600160a01b0382166000818152600560209081526040808320805486019055518481527fddf252ad1be2c89b69c2b068fc378daa952ba7f163c4a11628f55a4df523b3ef910160405180910390a35050565b336001600160a01b037f00000000000000000000000000000000000000000000000000000000000000001614612c2c5760405162461bcd60e51b815260206004820152602660248201527f4c555344546f6b656e3a2043616c6c6572206973206e6f742053746162696c696044820152651d1e541bdbdb60d21b6064820152608401611e48565b6001600160a01b038216612dd65760405162461bcd60e51b815260206004820152602160248201527f45524332303a206275726e2066726f6d20746865207a65726f206164647265736044820152607360f81b6064820152608401611e48565b6001600160a01b03821660009081526005602052604090205481811015612e4a5760405162461bcd60e51b815260206004820152602260248201527f45524332303a206275726e20616d6f756e7420657863656564732062616c616e604482015261636560f01b6064820152608401611e48565b6001600160a01b03831660008181526005602090815260408083208686039055600780548790039055518581529192917fddf252ad1be2c89b69c2b068fc378daa952ba7f163c4a11628f55a4df523b3ef910160405180910390a3505050565b612ec0612eb78280613b31565b60400135611f97565b612f025760405162461bcd60e51b8152602060048201526013602482015272125b9d985b1a59081b595c9adb19481c9bdbdd606a1b6044820152606401611e48565b60005b612f0f8280613b31565b612f1d906060810190613b47565b9050811015612fc557612f6d612f338380613b31565b612f41906060810190613b47565b83818110612f5157612f51613a4c565b9050602002013560009081526004602052604090205460ff1690565b15612fb35760405162461bcd60e51b8152602060048201526016602482015275125b9c1d5d081a5cc8185b1c9958591e481cdc195b9d60521b6044820152606401611e48565b80612fbd81613b98565b915050612f05565b50600080516020613eec833981519152612fe26020830183613af5565b604051602001612ff29190613c20565b6040516020818303038152906040528051906020012060001c6130159190613cb0565b61301f8280613b31565b60e00135146130705760405162461bcd60e51b815260206004820152601c60248201527f496e636f72726563742065787465726e616c20646174612068617368000000006044820152606401611e48565b60035461307c90613b15565b6130896020830183613af5565b602001351380156130ab57506003546130a56020830183613af5565b60200135125b6130ef5760405162461bcd60e51b8152602060048201526015602482015274125b9d985b1a59081c1d589b1a58c8185b5bdd5b9d605a1b6044820152606401611e48565b61318c6130fc8280613b31565b6131069080613cc4565b8080601f0160208091040260200160405190810160405280939291908181526020018383808284376000920191909152506131479250859150819050613b31565b613155906020810190613b47565b8080602002602001604051908101604052809392919081815260200183836020028082843760009201919091525061062492505050565b6131c85760405162461bcd60e51b815260206004820152600d60248201526c24b73b30b634b210383937b7b360991b6044820152606401611e48565b60005b6131d58280613b31565b6131e3906060810190613b47565b9050811015613259576001600460006131fc8580613b31565b61320a906060810190613b47565b8581811061321a5761321a613a4c565b90506020020135815260200190815260200160002060006101000a81548160ff021916908315150217905550808061325190613b98565b9150506131cb565b5060006132696020830183613af5565b6020013512156132e65760006132826020830183613af5565b613290906020810190613989565b6001600160a01b0316036132e65760405162461bcd60e51b815260206004820152601e60248201527f43616e277420776974686472617720746f207a65726f206164647265737300006044820152606401611e48565b61330a6132f38280613b31565b608001356133018380613b31565b60a001356134ba565b506133186020820182613af5565b613326906040810190613cc4565b604051613334929190613d0b565b604051908190039020600280546133599190640100000000900463ffffffff16613d1b565b63ffffffff166133698380613b31565b60405160809190910135907ff3843eddcfcac65d12d9f26261dab50671fdbf5dc44441816c8bbdace2411afd90600090a46133a76020820182613af5565b6133b5906060810190613cc4565b6040516133c3929190613d0b565b6040519081900390206002546133e990600190640100000000900463ffffffff16613d1b565b63ffffffff166133f98380613b31565b60405160a090910135907ff3843eddcfcac65d12d9f26261dab50671fdbf5dc44441816c8bbdace2411afd90600090a460005b6134368280613b31565b613444906060810190613b47565b9050811015611f93576134578280613b31565b613465906060810190613b47565b8281811061347557613475613a4c565b905060200201357f5e58f77bbf94b46d8d896e29753e4458c6e59b48581e20ed58c9558e96f297ce60405160405180910390a2806134b281613b98565b91505061342c565b6002805460009164010000000090910463ffffffff16906134fc907f000000000000000000000000000000000000000000000000000000000000000090613e50565b63ffffffff168163ffffffff160361356f5760405162461bcd60e51b815260206004820152603060248201527f4d65726b6c6520747265652069732066756c6c2e204e6f206d6f7265206c656160448201526f1d995cc818d85b88189948185919195960821b6064820152608401611e48565b600061357c600283613e65565b9050600061358a8686611ded565b905060008060015b7f000000000000000000000000000000000000000000000000000000000000000063ffffffff168163ffffffff161015613656576135d1600286613e88565b63ffffffff1660000361360f578392506135f08163ffffffff166120f3565b63ffffffff82166000908152602081905260409020859055915061362b565b63ffffffff811660009081526020819052604090205492508391505b6136358383611ded565b9350613642600286613e65565b94508061364e81613eab565b915050613592565b506002546000906064906136719063ffffffff166001613ece565b61367b9190613e88565b6002805463ffffffff191663ffffffff8316908117825560009081526001602052604090208690559091506136b1908790613ece565b6002805463ffffffff929092166401000000000267ffffffff0000000019909216919091179055509394505050505092915050565b60405180604001604052806002906020820280368337509192915050565b600060208083528351808285015260005b8181101561373157858101830151858201604001528201613715565b506000604082860101526040601f19601f8301168501019250505092915050565b80356001600160a01b038116811461274157600080fd5b6000806040838503121561377c57600080fd5b61378583613752565b946020939093013593505050565b6000602082840312156137a557600080fd5b5035919050565b634e487b7160e01b600052604160045260246000fd5b604051601f8201601f1916810167ffffffffffffffff811182821017156137eb576137eb6137ac565b604052919050565b600082601f83011261380457600080fd5b8135602067ffffffffffffffff821115613820576138206137ac565b8160051b61382f8282016137c2565b928352848101820192828101908785111561384957600080fd5b83870192505b848310156138685782358252918301919083019061384f565b979650505050505050565b6000806040838503121561388657600080fd5b823567ffffffffffffffff8082111561389e57600080fd5b818501915085601f8301126138b257600080fd5b81356020828211156138c6576138c66137ac565b6138d8601f8301601f191682016137c2565b82815288828487010111156138ec57600080fd5b8282860183830137600092810182019290925290945085013591508082111561391457600080fd5b50613921858286016137f3565b9150509250929050565b60008060006060848603121561394057600080fd5b61394984613752565b925061395760208501613752565b9150604084013590509250925092565b6000806040838503121561397a57600080fd5b50508035926020909101359150565b60006020828403121561399b57600080fd5b61067882613752565b600080604083850312156139b757600080fd5b6139c083613752565b91506139ce60208401613752565b90509250929050565b6000602082840312156139e957600080fd5b813567ffffffffffffffff811115613a0057600080fd5b82016040818503121561067857600080fd5b600181811c90821680613a2657607f821691505b602082108103613a4657634e487b7160e01b600052602260045260246000fd5b50919050565b634e487b7160e01b600052603260045260246000fd5b60408101818360005b6002811015613a8a578151835260209283019290910190600101613a6b565b50505092915050565b600060208284031215613aa557600080fd5b5051919050565b634e487b7160e01b600052601160045260246000fd5b8082018082111561061e5761061e613aac565b600063ffffffff821680613aeb57613aeb613aac565b6000190192915050565b60008235607e19833603018112613b0b57600080fd5b9190910192915050565b6000600160ff1b8201613b2a57613b2a613aac565b5060000390565b6000823560fe19833603018112613b0b57600080fd5b6000808335601e19843603018112613b5e57600080fd5b83018035915067ffffffffffffffff821115613b7957600080fd5b6020019150600581901b3603821315613b9157600080fd5b9250929050565b600060018201613baa57613baa613aac565b5060010190565b6000808335601e19843603018112613bc857600080fd5b830160208101925035905067ffffffffffffffff811115613be857600080fd5b803603821315613b9157600080fd5b81835281816020850137506000828201602090810191909152601f909101601f19169091010190565b602081526001600160a01b03613c3583613752565b166020820152602082013560408201526000613c546040840184613bb1565b60806060850152613c6960a085018284613bf7565b915050613c796060850185613bb1565b848303601f19016080860152613c90838284613bf7565b9695505050505050565b634e487b7160e01b600052601260045260246000fd5b600082613cbf57613cbf613c9a565b500690565b6000808335601e19843603018112613cdb57600080fd5b83018035915067ffffffffffffffff821115613cf657600080fd5b602001915036819003821315613b9157600080fd5b8183823760009101908152919050565b63ffffffff828116828216039080821115613d3857613d38613aac565b5092915050565b600181815b80851115613d7c578163ffffffff04821115613d6257613d62613aac565b80851615613d6f57918102915b93841c9390800290613d44565b509250929050565b600082613d935750600161061e565b81613da05750600061061e565b8160018114613db65760028114613dc057613df1565b600191505061061e565b60ff841115613dd157613dd1613aac565b6001841b915063ffffffff821115613deb57613deb613aac565b5061061e565b5060208310610133831016604e8410600b8410161715613e28575081810a63ffffffff811115613e2357613e23613aac565b61061e565b613e328383613d3f565b8063ffffffff04821115613e4857613e48613aac565b029392505050565b600063ffffffff611f57818516828516613d84565b600063ffffffff80841680613e7c57613e7c613c9a565b92169190910492915050565b600063ffffffff80841680613e9f57613e9f613c9a565b92169190910692915050565b600063ffffffff808316818103613ec457613ec4613aac565b6001019392505050565b63ffffffff818116838216019080821115613d3857613d38613aac56fe30644e72e131a029b85045b68181585d2833e84879b9709143e1f593f000000100eeb2cb5981ed45649abebde081dcff16c8601de4347e7dd1628ba2daac43b7a264697066735822122041a302af8ef66befe04936fb0692a9c82f5fb444ba784c746f74ba3a5d876d5864736f6c63430008120033",
  "linkReferences": {},
  "deployedLinkReferences": {}
}