{
  "_format": "hh-sol-artifact-1",
  "contractName": "MultiAssetShieldedPool",
  "sourceName": "contracts/MultiAssetShieldedPool.sol",
  "abi": [
    {
      "inputs": [
        {
          "internalType": "address",
          "name": "_hasherAddress",
          "type": "address"
        },
        {
          "internalType": "address",
          "name": "_verifier",
          "type": "address"
        },
        {
          "internalType": "address",
          "name": "_swapExecutor",
          "type": "address"
        }
      ],
      "stateMutability": "nonpayable",
      "type": "constructor"
    },
    {
      "anonymous": false,
      "inputs": [
        {
          "indexed": true,
          "internalType": "bytes32",
          "name": "commitment",
          "type": "bytes32"
        },
        {
          "indexed": true,
          "internalType": "uint256",
          "name": "index",
          "type": "uint256"
        },
        {
          "indexed": false,
          "internalType": "bytes",
          "name": "encryptedOutput",
          "type": "bytes"
        }
      ],
      "name": "NewCommitment",
      "type": "event"
    },
    {
      "anonymous": false,
      "inputs": [
        {
          "indexed": true,
          "internalType": "bytes32",
          "name": "nullifier",
          "type": "bytes32"
        }
      ],
      "name": "NewNullifier",
      "type": "event"
    },
    {
      "inputs": [],
      "name": "FIELD_SIZE",
      "outputs": [
        {
          "internalType": "uint256",
          "name": "",
          "type": "uint256"
        }
      ],
      "stateMutability": "view",
      "type": "function"
    },
    {
      "inputs": [],
      "name": "MAX_EXT_AMOUNT",
      "outputs": [
        {
          "internalType": "int256",
          "name": "",
          "type": "int256"
        }
      ],
      "stateMutability": "view",
      "type": "function"
    },
    {
      "inputs": [],
      "name": "ROOT_HISTORY_SIZE",
      "outputs": [
        {
          "internalType": "uint32",
          "name": "",
          "type": "uint32"
        }
      ],
      "stateMutability": "view",
      "type": "function"
    },
    {
      "inputs": [],
      "name": "ZERO_VALUE",
      "outputs": [
        {
          "internalType": "uint256",
          "name": "",
          "type": "uint256"
        }
      ],
      "stateMutability": "view",
      "type": "function"
    },
    {
      "inputs": [],
      "name": "currentRootIndex",
      "outputs": [
        {
          "internalType": "uint32",
          "name": "",
          "type": "uint32"
        }
      ],
      "stateMutability": "view",
      "type": "function"
    },
    {
      "inputs": [
        {
          "internalType": "uint256",
          "name": "",
          "type": "uint256"
        }
      ],
      "name": "filledSubtrees",
      "outputs": [
        {
          "internalType": "bytes32",
          "name": "",
          "type": "bytes32"
        }
      ],
      "stateMutability": "view",
      "type": "function"
    },
    {
      "inputs": [],
      "name": "getLastRoot",
      "outputs": [
        {
          "internalType": "bytes32",
          "name": "",
          "type": "bytes32"
        }
      ],
      "stateMutability": "view",
      "type": "function"
    },
    {
      "inputs": [
        {
          "internalType": "bytes32",
          "name": "_left",
          "type": "bytes32"
        },
        {
          "internalType": "bytes32",
          "name": "_right",
          "type": "bytes32"
        }
      ],
      "name": "hashLeftRight",
      "outputs": [
        {
          "internalType": "bytes32",
          "name": "",
          "type": "bytes32"
        }
      ],
      "stateMutability": "view",
      "type": "function"
    },
    {
      "inputs": [],
      "name": "hasher",
      "outputs": [
        {
          "internalType": "contract IHasher",
          "name": "",
          "type": "address"
        }
      ],
      "stateMutability": "view",
      "type": "function"
    },
    {
      "inputs": [
        {
          "internalType": "bytes32",
          "name": "_root",
          "type": "bytes32"
        }
      ],
      "name": "isKnownRoot",
      "outputs": [
        {
          "internalType": "bool",
          "name": "",
          "type": "bool"
        }
      ],
      "stateMutability": "view",
      "type": "function"
    },
    {
      "inputs": [
        {
          "internalType": "bytes32",
          "name": "_nullifierHash",
          "type": "bytes32"
        }
      ],
      "name": "isSpent",
      "outputs": [
        {
          "internalType": "bool",
          "name": "",
          "type": "bool"
        }
      ],
      "stateMutability": "view",
      "type": "function"
    },
    {
      "inputs": [],
      "name": "levels",
      "outputs": [
        {
          "internalType": "uint32",
          "name": "",
          "type": "uint32"
        }
      ],
      "stateMutability": "view",
      "type": "function"
    },
    {
      "inputs": [],
      "name": "nextIndex",
      "outputs": [
        {
          "internalType": "uint32",
          "name": "",
          "type": "uint32"
        }
      ],
      "stateMutability": "view",
      "type": "function"
    },
    {
      "inputs": [
        {
          "internalType": "bytes32",
          "name": "",
          "type": "bytes32"
        }
      ],
      "name": "nullifierHashes",
      "outputs": [
        {
          "internalType": "bool",
          "name": "",
          "type": "bool"
        }
      ],
      "stateMutability": "view",
      "type": "function"
    },
    {
      "inputs": [
        {
          "internalType": "bytes",
          "name": "data",
          "type": "bytes"
        }
      ],
      "name": "parseProof",
      "outputs": [
        {
          "internalType": "uint256[2]",
          "name": "a",
          "type": "uint256[2]"
        },
        {
          "internalType": "uint256[2][2]",
          "name": "b",
          "type": "uint256[2][2]"
        },
        {
          "internalType": "uint256[2]",
          "name": "c",
          "type": "uint256[2]"
        }
      ],
      "stateMutability": "pure",
      "type": "function"
    },
    {
      "inputs": [
        {
          "internalType": "uint256",
          "name": "",
          "type": "uint256"
        }
      ],
      "name": "roots",
      "outputs": [
        {
          "internalType": "bytes32",
          "name": "",
          "type": "bytes32"
        }
      ],
      "stateMutability": "view",
      "type": "function"
    },
    {
      "inputs": [],
      "name": "swapExecutor",
      "outputs": [
        {
          "internalType": "contract SwapExecutor",
          "name": "",
          "type": "address"
        }
      ],
      "stateMutability": "view",
      "type": "function"
    },
    {
      "inputs": [
        {
          "components": [
            {
              "components": [
                {
                  "internalType": "bytes",
                  "name": "proof",
                  "type": "bytes"
                },
                {
                  "internalType": "bytes32",
                  "name": "root",
                  "type": "bytes32"
                },
                {
                  "internalType": "bytes32[2]",
                  "name": "inputNullifiers",
                  "type": "bytes32[2]"
                },
                {
                  "internalType": "bytes32[2]",
                  "name": "outputCommitments",
                  "type": "bytes32[2]"
                },
                {
                  "internalType": "uint256",
                  "name": "publicAmount",
                  "type": "uint256"
                },
                {
                  "internalType": "address",
                  "name": "publicAsset",
                  "type": "address"
                },
                {
                  "internalType": "bytes32",
                  "name": "extDataHash",
                  "type": "bytes32"
                }
              ],
              "internalType": "struct ShieldedPool.ProofArguments",
              "name": "proofArguments",
              "type": "tuple"
            },
            {
              "components": [
                {
                  "internalType": "address",
                  "name": "recipient",
                  "type": "address"
                },
                {
                  "internalType": "int256",
                  "name": "extAmount",
                  "type": "int256"
                },
                {
                  "internalType": "bytes",
                  "name": "encryptedOutput1",
                  "type": "bytes"
                },
                {
                  "internalType": "bytes",
                  "name": "encryptedOutput2",
                  "type": "bytes"
                },
                {
                  "internalType": "address",
                  "name": "tokenOut",
                  "type": "address"
                },
                {
                  "internalType": "uint256",
                  "name": "amountOutMin",
                  "type": "uint256"
                },
                {
                  "internalType": "address",
                  "name": "swapRecipient",
                  "type": "address"
                },
                {
                  "internalType": "address",
                  "name": "swapRouter",
                  "type": "address"
                },
                {
                  "internalType": "bytes",
                  "name": "swapData",
                  "type": "bytes"
                },
                {
                  "internalType": "bytes",
                  "name": "transactData",
                  "type": "bytes"
                }
              ],
              "internalType": "struct ShieldedPool.ExtData",
              "name": "extData",
              "type": "tuple"
            }
          ],
          "internalType": "struct ShieldedPool.Proof",
          "name": "_proof",
          "type": "tuple"
        }
      ],
      "name": "transact",
      "outputs": [],
      "stateMutability": "nonpayable",
      "type": "function"
    },
    {
      "inputs": [
        {
          "components": [
            {
              "components": [
                {
                  "internalType": "bytes",
                  "name": "proof",
                  "type": "bytes"
                },
                {
                  "internalType": "bytes32",
                  "name": "root",
                  "type": "bytes32"
                },
                {
                  "internalType": "bytes32[2]",
                  "name": "inputNullifiers",
                  "type": "bytes32[2]"
                },
                {
                  "internalType": "bytes32[2]",
                  "name": "outputCommitments",
                  "type": "bytes32[2]"
                },
                {
                  "internalType": "uint256",
                  "name": "publicAmount",
                  "type": "uint256"
                },
                {
                  "internalType": "address",
                  "name": "publicAsset",
                  "type": "address"
                },
                {
                  "internalType": "bytes32",
                  "name": "extDataHash",
                  "type": "bytes32"
                }
              ],
              "internalType": "struct ShieldedPool.ProofArguments",
              "name": "proofArguments",
              "type": "tuple"
            },
            {
              "components": [
                {
                  "internalType": "address",
                  "name": "recipient",
                  "type": "address"
                },
                {
                  "internalType": "int256",
                  "name": "extAmount",
                  "type": "int256"
                },
                {
                  "internalType": "bytes",
                  "name": "encryptedOutput1",
                  "type": "bytes"
                },
                {
                  "internalType": "bytes",
                  "name": "encryptedOutput2",
                  "type": "bytes"
                },
                {
                  "internalType": "address",
                  "name": "tokenOut",
                  "type": "address"
                },
                {
                  "internalType": "uint256",
                  "name": "amountOutMin",
                  "type": "uint256"
                },
                {
                  "internalType": "address",
                  "name": "swapRecipient",
                  "type": "address"
                },
                {
                  "internalType": "address",
                  "name": "swapRouter",
                  "type": "address"
                },
                {
                  "internalType": "bytes",
                  "name": "swapData",
                  "type": "bytes"
                },
                {
                  "internalType": "bytes",
                  "name": "transactData",
                  "type": "bytes"
                }
              ],
              "internalType": "struct ShieldedPool.ExtData",
              "name": "extData",
              "type": "tuple"
            }
          ],
          "internalType": "struct ShieldedPool.Proof",
          "name": "_proof",
          "type": "tuple"
        }
      ],
      "name": "transactAndSwap",
      "outputs": [],
      "stateMutability": "nonpayable",
      "type": "function"
    },
    {
      "inputs": [],
      "name": "verifier",
      "outputs": [
        {
          "internalType": "contract TransactionVerifier",
          "name": "",
          "type": "address"
        }
      ],
      "stateMutability": "view",
      "type": "function"
    },
    {
      "inputs": [
        {
          "internalType": "uint256",
          "name": "i",
          "type": "uint256"
        }
      ],
      "name": "zeros",
      "outputs": [
        {
          "internalType": "bytes32",
          "name": "",
          "type": "bytes32"
        }
      ],
      "stateMutability": "pure",
      "type": "function"
    }
  ],
  "bytecode": "0x60c0604052600280546001600160401b0319169055600160f81b6003553480156200002957600080fd5b5060405162002ffc38038062002ffc8339810160408190526200004c9162000841565b6005838383838362000062565b60405180910390fd5b60208263ffffffff1610620000ba5760405162461bcd60e51b815260206004820152601e60248201527f5f6c6576656c732073686f756c64206265206c657373207468616e2033320000604482015260640162000059565b63ffffffff90911660a0526001600160a01b03908116608052600580548483166001600160a01b03199182161790915560068054928416929091169190911790556200010562000112565b50505050505050620008bd565b60005b60a05163ffffffff168163ffffffff16101562000168576200013d63ffffffff8216620001aa565b63ffffffff8216600090815260208190526040902055806200015f816200088b565b91505062000115565b5060a0516200017d9063ffffffff16620001aa565b6000805260016020527fa6eef7e35abe7026729641147f7915573c7e97b47efa546f5f6e3230263bcb4955565b600081600003620001dc57507f2fe54c60d3acabf3343a35b6eba15db4821b340f76e741e2249685ed4899af6c919050565b816001036200020c57507f13e37f2d6cb86c78ccc1788607c2b199788c6bb0a615a21f2e7a8e88384222f8919050565b816002036200023c57507f217126fa352c326896e8c2803eec8fd63ad50cf65edfef27a41a9e32dc622765919050565b816003036200026c57507f0e28a61a9b3e91007d5a9e3ada18e1b24d6d230c618388ee5df34cacd7397eee919050565b816004036200029c57507f27953447a6979839536badc5425ed15fadb0e292e9bc36f92f0aa5cfa5013587919050565b81600503620002cc57507f194191edbfb91d10f6a7afd315f33095410c7801c47175c2df6dc2cce0e3affc919050565b81600603620002fc57507f1733dece17d71190516dbaf1927936fa643dc7079fc0cc731de9d6845a47741f919050565b816007036200032c57507f267855a7dc75db39d81d17f95d0a7aa572bf5ae19f4db0e84221d2b2ef999219919050565b816008036200035c57507f1184e11836b4c36ad8238a340ecc0985eeba665327e33e9b0e3641027c27620d919050565b816009036200038c57507f0702ab83a135d7f55350ab1bfaa90babd8fc1d2b3e6a7215381a7b2213d6c5ce919050565b81600a03620003bc57507f2eecc0de814cfd8c57ce882babb2e30d1da56621aef7a47f3291cffeaec26ad7919050565b81600b03620003ec57507f280bc02145c155d5833585b6c7b08501055157dd30ce005319621dc462d33b47919050565b81600c036200041c57507f045132221d1fa0a7f4aed8acd2cbec1e2189b7732ccb2ec272b9c60f0d5afc5b919050565b81600d036200044c57507f27f427ccbf58a44b1270abbe4eda6ba53bd6ac4d88cf1e00a13c4371ce71d366919050565b81600e036200047c57507f1617eaae5064f26e8f8a6493ae92bfded7fde71b65df1ca6d5dcec0df70b2cef919050565b81600f03620004ac57507f20c6b400d0ea1b15435703c31c31ee63ad7ba5c8da66cec2796feacea575abca919050565b81601003620004dc57507f09589ddb438723f53a8e57bdada7c5f8ed67e8fece3889a73618732965645eec919050565b816011036200050b57507e64b6a738a5ff537db7b220f3394f0ecbd35bfd355c5425dc1166bf3236079b919050565b816012036200053b57507f095de56281b1d5055e897c3574ff790d5ee81dbc5df784ad2d67795e557c9e9f919050565b816013036200056b57507f11cf2e2887aa21963a6ec14289183efe4d4c60f14ecd3d6fe0beebdf855a9b63919050565b816014036200059b57507f2b0f6fc0179fa65b6f73627c0e1e84c7374d2eaec44c9a48f2571393ea77bcbb919050565b81601503620005cb57507f16fdb637c2abf9c0f988dbf2fd64258c46fb6a273d537b2cf1603ea460b13279919050565b81601603620005fb57507f21bbd7e944f6124dad4c376df9cc12e7ca66e47dff703ff7cedb1a454edcf0ff919050565b816017036200062b57507f2784f8220b1c963e468f590f137baaa1625b3b92a27ad9b6e84eb0d3454d9962919050565b816018036200065b57507f16ace1a65b7534142f8cc1aad810b3d6a7a74ca905d9c275cb98ba57e509fc10919050565b816019036200068b57507f2328068c6a8c24265124debd8fe10d3f29f0665ea725a65e3638f6192a96a013919050565b81601a03620006bb57507f2ddb991be1f028022411b4c4d2c22043e5e751c120736f00adf54acab1c9ac14919050565b81601b03620006eb57507f0113798410eaeb95056a464f70521eb58377c0155f2fe518a5594d38cc209cc0919050565b81601c036200071b57507f202d1ae61526f0d0d01ef80fb5d4055a7af45721024c2c24cffd6a3798f54d50919050565b81601d036200074b57507f23ab323453748129f2765f79615022f5bebd6f4096a796300aab049a60b0f187919050565b81601e036200077b57507f1f15585f8947e378bcf8bd918716799da909acdb944c57150b1eb4565fda8aa0919050565b81601f03620007ab57507f1eb064b21055ac6a350cf41eb30e4ce2cb19680217df3a243617c2838185ad06919050565b81602003620007db57507f25a90efc49af54a5b7154a6eaba978dcf04796b4984fe54be8d4ea8579e1f1e6919050565b60405162461bcd60e51b815260206004820152601360248201527f496e646578206f7574206f6620626f756e647300000000000000000000000000604482015260640162000059565b919050565b80516001600160a01b03811681146200082457600080fd5b6000806000606084860312156200085757600080fd5b620008628462000829565b9250620008726020850162000829565b9150620008826040850162000829565b90509250925092565b600063ffffffff808316818103620008b357634e487b7160e01b600052601160045260246000fd5b6001019392505050565b60805160a051612704620008f8600039600081816101da01528181611b500152611c0d015260008181610341015261048701526127046000f3fe608060405234801561001057600080fd5b50600436106101375760003560e01c806384fcec46116100b8578063e5285dcc1161007c578063e5285dcc146102df578063e829558814610302578063ec73295914610315578063ed33639f1461033c578063f178e47c14610363578063fc7e9c6f1461038357600080fd5b806384fcec461461027757806390eeb02b1461028a578063ba70f7571461029a578063c2b40ae4146102b7578063cd87a3b4146102d757600080fd5b806362274329116100ff57806362274329146102115780636d9833e31461022657806375d8498f14610239578063793deea31461024c5780637fe24ffe1461026e57600080fd5b806317cc915c1461013c5780632b7ac3f31461017457806338bf282e1461019f578063414a37ba146101c05780634ecf518b146101d5575b600080fd5b61015f61014a366004611daa565b60046020526000908152604090205460ff1681565b60405190151581526020015b60405180910390f35b600554610187906001600160a01b031681565b6040516001600160a01b03909116815260200161016b565b6101b26101ad366004611dc3565b61039b565b60405190815260200161016b565b6101b26000805160206126af83398151915281565b6101fc7f000000000000000000000000000000000000000000000000000000000000000081565b60405163ffffffff909116815260200161016b565b61022461021f366004611de5565b61050f565b005b61015f610234366004611daa565b610774565b610224610247366004611de5565b6107f2565b61025f61025a366004611e3d565b61092d565b60405161016b93929190611f68565b6101b260035481565b600654610187906001600160a01b031681565b6002546101fc9063ffffffff1681565b60025463ffffffff166000908152600160205260409020546101b2565b6101b26102c5366004611daa565b60016020526000908152604090205481565b6101fc606481565b61015f6102ed366004611daa565b60009081526004602052604090205460ff1690565b6101b2610310366004611daa565b6109d4565b6101b27f2fe54c60d3acabf3343a35b6eba15db4821b340f76e741e2249685ed4899af6c81565b6101877f000000000000000000000000000000000000000000000000000000000000000081565b6101b2610371366004611daa565b60006020819052908152604090205481565b6002546101fc90640100000000900463ffffffff1681565b60006000805160206126af83398151915283106103ff5760405162461bcd60e51b815260206004820181905260248201527f5f6c6566742073686f756c6420626520696e7369646520746865206669656c6460448201526064015b60405180910390fd5b6000805160206126af83398151915282106104665760405162461bcd60e51b815260206004820152602160248201527f5f72696768742073686f756c6420626520696e7369646520746865206669656c6044820152601960fa1b60648201526084016103f6565b61046e611d5f565b8381526020810183905260405163014cf2b360e51b81527f00000000000000000000000000000000000000000000000000000000000000006001600160a01b03169063299e5660906104c4908490600401611faf565b602060405180830381865afa1580156104e1573d6000803e3d6000fd5b505050506040513d601f19601f820116820180604052508101906105059190611fe0565b9150505b92915050565b61056061051c8280611ff9565b610526908061201a565b8080601f01602080910402602001604051908101604052809392919081815260200183838082843760009201919091525061102792505050565b600061056f6020830183612068565b6020013513156106365760006105858280611ff9565b6105979061010081019060e001612096565b90506001600160a01b0381166323b872dd33306105b76020870187612068565b6040516001600160e01b031960e086901b1681526001600160a01b0393841660048201529290911660248301526020013560448201526064016020604051808303816000875af115801561060f573d6000803e3d6000fd5b505050506040513d601f19601f8201168201806040525081019061063391906120b1565b50505b61063f8161106a565b600061064e6020830183612068565b6020013512156107715760006106676020830183612068565b610675906020810190612096565b6001600160a01b03160361069b5760405162461bcd60e51b81526004016103f6906120d3565b60006106a78280611ff9565b6106b99061010081019060e001612096565b90506001600160a01b03811663a9059cbb6106d76020850185612068565b6106e5906020810190612096565b6106f26020860186612068565b602001356106ff90612120565b6040516001600160e01b031960e085901b1681526001600160a01b03909216600483015260248201526044016020604051808303816000875af115801561074a573d6000803e3d6000fd5b505050506040513d601f19601f8201168201806040525081019061076e91906120b1565b50505b50565b600081810361078557506000919050565b60025463ffffffff16805b63ffffffff811660009081526001602052604090205484036107b6575060019392505050565b8063ffffffff166000036107c8575060645b806107d28161213c565b9150508163ffffffff168163ffffffff1603610790575060009392505050565b60006108016020830183612068565b60200135121561092457600061081a6020830183612068565b610828906020810190612096565b6001600160a01b03160361084e5760405162461bcd60e51b81526004016103f6906120d3565b600061085a8280611ff9565b61086c9061010081019060e001612096565b90506001600160a01b03811663a9059cbb61088a6020850185612068565b610898906020810190612096565b6108a56020860186612068565b602001356108b290612120565b6040516001600160e01b031960e085901b1681526001600160a01b03909216600483015260248201526044016020604051808303816000875af11580156108fd573d6000803e3d6000fd5b505050506040513d601f19601f8201168201806040525081019061092191906120b1565b50505b610771816110fc565b610935611d5f565b61093d611d7d565b610945611d5f565b835160c01461098d5760405162461bcd60e51b8152602060048201526014602482015273092dcecc2d8d2c840d2dce0eae840d8cadccee8d60631b60448201526064016103f6565b838060200190518101906109a1919061215c565b895160208b8101518b820193909352928a5281830193909352929092528082019290925291905285015283529193909250565b600081600003610a0557507f2fe54c60d3acabf3343a35b6eba15db4821b340f76e741e2249685ed4899af6c919050565b81600103610a3457507f13e37f2d6cb86c78ccc1788607c2b199788c6bb0a615a21f2e7a8e88384222f8919050565b81600203610a6357507f217126fa352c326896e8c2803eec8fd63ad50cf65edfef27a41a9e32dc622765919050565b81600303610a9257507f0e28a61a9b3e91007d5a9e3ada18e1b24d6d230c618388ee5df34cacd7397eee919050565b81600403610ac157507f27953447a6979839536badc5425ed15fadb0e292e9bc36f92f0aa5cfa5013587919050565b81600503610af057507f194191edbfb91d10f6a7afd315f33095410c7801c47175c2df6dc2cce0e3affc919050565b81600603610b1f57507f1733dece17d71190516dbaf1927936fa643dc7079fc0cc731de9d6845a47741f919050565b81600703610b4e57507f267855a7dc75db39d81d17f95d0a7aa572bf5ae19f4db0e84221d2b2ef999219919050565b81600803610b7d57507f1184e11836b4c36ad8238a340ecc0985eeba665327e33e9b0e3641027c27620d919050565b81600903610bac57507f0702ab83a135d7f55350ab1bfaa90babd8fc1d2b3e6a7215381a7b2213d6c5ce919050565b81600a03610bdb57507f2eecc0de814cfd8c57ce882babb2e30d1da56621aef7a47f3291cffeaec26ad7919050565b81600b03610c0a57507f280bc02145c155d5833585b6c7b08501055157dd30ce005319621dc462d33b47919050565b81600c03610c3957507f045132221d1fa0a7f4aed8acd2cbec1e2189b7732ccb2ec272b9c60f0d5afc5b919050565b81600d03610c6857507f27f427ccbf58a44b1270abbe4eda6ba53bd6ac4d88cf1e00a13c4371ce71d366919050565b81600e03610c9757507f1617eaae5064f26e8f8a6493ae92bfded7fde71b65df1ca6d5dcec0df70b2cef919050565b81600f03610cc657507f20c6b400d0ea1b15435703c31c31ee63ad7ba5c8da66cec2796feacea575abca919050565b81601003610cf557507f09589ddb438723f53a8e57bdada7c5f8ed67e8fece3889a73618732965645eec919050565b81601103610d2357507e64b6a738a5ff537db7b220f3394f0ecbd35bfd355c5425dc1166bf3236079b919050565b81601203610d5257507f095de56281b1d5055e897c3574ff790d5ee81dbc5df784ad2d67795e557c9e9f919050565b81601303610d8157507f11cf2e2887aa21963a6ec14289183efe4d4c60f14ecd3d6fe0beebdf855a9b63919050565b81601403610db057507f2b0f6fc0179fa65b6f73627c0e1e84c7374d2eaec44c9a48f2571393ea77bcbb919050565b81601503610ddf57507f16fdb637c2abf9c0f988dbf2fd64258c46fb6a273d537b2cf1603ea460b13279919050565b81601603610e0e57507f21bbd7e944f6124dad4c376df9cc12e7ca66e47dff703ff7cedb1a454edcf0ff919050565b81601703610e3d57507f2784f8220b1c963e468f590f137baaa1625b3b92a27ad9b6e84eb0d3454d9962919050565b81601803610e6c57507f16ace1a65b7534142f8cc1aad810b3d6a7a74ca905d9c275cb98ba57e509fc10919050565b81601903610e9b57507f2328068c6a8c24265124debd8fe10d3f29f0665ea725a65e3638f6192a96a013919050565b81601a03610eca57507f2ddb991be1f028022411b4c4d2c22043e5e751c120736f00adf54acab1c9ac14919050565b81601b03610ef957507f0113798410eaeb95056a464f70521eb58377c0155f2fe518a5594d38cc209cc0919050565b81601c03610f2857507f202d1ae61526f0d0d01ef80fb5d4055a7af45721024c2c24cffd6a3798f54d50919050565b81601d03610f5757507f23ab323453748129f2765f79615022f5bebd6f4096a796300aab049a60b0f187919050565b81601e03610f8657507f1f15585f8947e378bcf8bd918716799da909acdb944c57150b1eb4565fda8aa0919050565b81601f03610fb557507f1eb064b21055ac6a350cf41eb30e4ce2cb19680217df3a243617c2838185ad06919050565b81602003610fe457507f25a90efc49af54a5b7154a6eaba978dcf04796b4984fe54be8d4ea8579e1f1e6919050565b60405162461bcd60e51b8152602060048201526013602482015272496e646578206f7574206f6620626f756e647360681b60448201526064016103f6565b919050565b6107718160405160240161103b91906121b9565b60408051601f198184030181529190526020810180516001600160e01b031663104c13eb60e21b17905261148a565b6006546001600160a01b03166110836020830183612068565b611091906020810190612096565b6001600160a01b0316036110f35760405162461bcd60e51b8152602060048201526024808201527f726563697069656e742073686f756c64206e6f742062652073776170457865636044820152633aba37b960e11b60648201526084016103f6565b610771816114ab565b600061110b6020830183612068565b602001351261115c5760405162461bcd60e51b815260206004820152601c60248201527f657874416d6f756e742073686f756c64206265206e656761746976650000000060448201526064016103f6565b60006111688280611ff9565b61117a9061010081019060e001612096565b6001600160a01b0316036111d05760405162461bcd60e51b815260206004820152601d60248201527f7075626c696341737365742073686f756c64206e6f742062652030783000000060448201526064016103f6565b6111d9816114ab565b6006546001600160a01b03166111f26020830183612068565b611200906020810190612096565b6001600160a01b0316146112615760405162461bcd60e51b815260206004820152602260248201527f6f6e6c7920737761704578656375746f722063616e20626520726563697069656044820152611b9d60f21b60648201526084016103f6565b60006112706020830183612068565b6112819060a0810190608001612096565b6001600160a01b0316036112d75760405162461bcd60e51b815260206004820152601a60248201527f746f6b656e4f75742073686f756c64206e6f742062652030783000000000000060448201526064016103f6565b60006112e66020830183612068565b60a00135116113455760405162461bcd60e51b815260206004820152602560248201527f616d6f756e744f75744d696e2073686f756c6420626520677265617465722074604482015264068616e20360dc1b60648201526084016103f6565b6006546001600160a01b031663a0c6a6ef6113608380611ff9565b6113729061010081019060e001612096565b61137f6020850185612068565b6113909060a0810190608001612096565b61139d6020860186612068565b602001356113aa90612120565b6113b76020870187612068565b60a001356113c86020880188612068565b6113da9061010081019060e001612096565b6113e76020890189612068565b6113f89060e081019060c001612096565b61140560208a018a612068565b6114149061010081019061201a565b61142160208c018c612068565b6114309061012081019061201a565b6040518b63ffffffff1660e01b81526004016114559a99989796959493929190612230565b600060405180830381600087803b15801561146f57600080fd5b505af1158015611483573d6000803e3d6000fd5b5050505050565b80516a636f6e736f6c652e6c6f67602083016000808483855afa5050505050565b6114c16114b88280611ff9565b60200135610774565b6115035760405162461bcd60e51b8152602060048201526013602482015272125b9d985b1a59081b595c9adb19481c9bdbdd606a1b60448201526064016103f6565b60005b6115108280611ff9565b5060028110156115ad576115556115278380611ff9565b604001826002811061153b5761153b611f99565b602002013560009081526004602052604090205460ff1690565b1561159b5760405162461bcd60e51b8152602060048201526016602482015275125b9c1d5d081a5cc8185b1c9958591e481cdc195b9d60521b60448201526064016103f6565b806115a5816122a2565b915050611506565b506000805160206126af8339815191526115ca6020830183612068565b6040516020016115da9190612301565b6040516020818303038152906040528051906020012060001c6115fd9190612459565b6116078280611ff9565b6101000135146116595760405162461bcd60e51b815260206004820152601c60248201527f496e636f72726563742065787465726e616c206461746120686173680000000060448201526064016103f6565b60035461166590612120565b6116726020830183612068565b60200135138015611694575060035461168e6020830183612068565b60200135125b6116d85760405162461bcd60e51b8152602060048201526015602482015274125b9d985b1a59081c1d589b1a58c8185b5bdd5b9d605a1b60448201526064016103f6565b604080516101008101909152600090806116f28480611ff9565b6020908101358252016117058480611ff9565b60c0013581526020016117188480611ff9565b61172a9061010081019060e001612096565b6001600160a01b031681526020016117428480611ff9565b610100013581526020016117568480611ff9565b6040013581526020016117698480611ff9565b60600135815260200161177c8480611ff9565b60800135815260200161178f8480611ff9565b60a00135905290506117ea6117a48380611ff9565b6117ae908061201a565b8080601f016020809104026020016040519081016040528093929190818152602001838380828437600092019190915250859250611a9d915050565b6118265760405162461bcd60e51b815260206004820152600d60248201526c24b73b30b634b210383937b7b360991b60448201526064016103f6565b60005b6118338380611ff9565b50600281101561189e5760016004600061184d8680611ff9565b604001846002811061186157611861611f99565b6020020135815260200190815260200160002060006101000a81548160ff0219169083151502179055508080611896906122a2565b915050611829565b5060006118ae6020840184612068565b6020013512156118fb5760006118c76020840184612068565b6118d5906020810190612096565b6001600160a01b0316036118fb5760405162461bcd60e51b81526004016103f6906120d3565b61191f6119088380611ff9565b608001356119168480611ff9565b60a00135611b33565b506002805461193c9190640100000000900463ffffffff1661246d565b63ffffffff1661194c8380611ff9565b608001357ff3843eddcfcac65d12d9f26261dab50671fdbf5dc44441816c8bbdace2411afd61197e6020860186612068565b61198c90604081019061201a565b60405161199a929190612491565b60405180910390a36002546119bf90600190640100000000900463ffffffff1661246d565b63ffffffff166119cf8380611ff9565b60a001357ff3843eddcfcac65d12d9f26261dab50671fdbf5dc44441816c8bbdace2411afd611a016020860186612068565b611a0f90606081019061201a565b604051611a1d929190612491565b60405180910390a360005b611a328380611ff9565b50600281101561076e57611a468380611ff9565b6040018160028110611a5a57611a5a611f99565b60200201357f5e58f77bbf94b46d8d896e29753e4458c6e59b48581e20ed58c9558e96f297ce60405160405180910390a280611a95816122a2565b915050611a28565b600080600080611aac8661092d565b600554604051636490cd3d60e11b815293965091945092506001600160a01b03169063c9219a7a90611ae8908690869086908b906004016124a5565b602060405180830381865afa158015611b05573d6000803e3d6000fd5b505050506040513d601f19601f82011682018060405250810190611b2991906120b1565b9695505050505050565b6002805460009164010000000090910463ffffffff1690611b75907f000000000000000000000000000000000000000000000000000000000000000090612613565b63ffffffff168163ffffffff1603611be85760405162461bcd60e51b815260206004820152603060248201527f4d65726b6c6520747265652069732066756c6c2e204e6f206d6f7265206c656160448201526f1d995cc818d85b88189948185919195960821b60648201526084016103f6565b6000611bf5600283612628565b90506000611c03868661039b565b905060008060015b7f000000000000000000000000000000000000000000000000000000000000000063ffffffff168163ffffffff161015611ccf57611c4a60028661264b565b63ffffffff16600003611c8857839250611c698163ffffffff166109d4565b63ffffffff821660009081526020819052604090208590559150611ca4565b63ffffffff811660009081526020819052604090205492508391505b611cae838361039b565b9350611cbb600286612628565b945080611cc78161266e565b915050611c0b565b50600254600090606490611cea9063ffffffff166001612691565b611cf4919061264b565b6002805463ffffffff191663ffffffff831690811782556000908152600160205260409020869055909150611d2a908790612691565b6002805463ffffffff929092166401000000000267ffffffff0000000019909216919091179055509394505050505092915050565b60405180604001604052806002906020820280368337509192915050565b60405180604001604052806002905b611d94611d5f565b815260200190600190039081611d8c5790505090565b600060208284031215611dbc57600080fd5b5035919050565b60008060408385031215611dd657600080fd5b50508035926020909101359150565b600060208284031215611df757600080fd5b813567ffffffffffffffff811115611e0e57600080fd5b820160408185031215611e2057600080fd5b9392505050565b634e487b7160e01b600052604160045260246000fd5b600060208284031215611e4f57600080fd5b813567ffffffffffffffff80821115611e6757600080fd5b818401915084601f830112611e7b57600080fd5b813581811115611e8d57611e8d611e27565b604051601f8201601f19908116603f01168101908382118183101715611eb557611eb5611e27565b81604052828152876020848701011115611ece57600080fd5b826020860160208301376000928101602001929092525095945050505050565b8060005b6002811015611f11578151845260209384019390910190600101611ef2565b50505050565b806000805b6002808210611f2b5750611483565b835186845b83811015611f4e578251825260209283019290910190600101611f30565b505050604095909501945060209290920191600101611f1c565b6101008101611f778286611eee565b611f846040830185611f17565b611f9160c0830184611eee565b949350505050565b634e487b7160e01b600052603260045260246000fd5b60408101818360005b6002811015611fd7578151835260209283019290910190600101611fb8565b50505092915050565b600060208284031215611ff257600080fd5b5051919050565b6000823561011e1983360301811261201057600080fd5b9190910192915050565b6000808335601e1984360301811261203157600080fd5b83018035915067ffffffffffffffff82111561204c57600080fd5b60200191503681900382131561206157600080fd5b9250929050565b6000823561013e1983360301811261201057600080fd5b80356001600160a01b038116811461102257600080fd5b6000602082840312156120a857600080fd5b611e208261207f565b6000602082840312156120c357600080fd5b81518015158114611e2057600080fd5b6020808252601e908201527f43616e277420776974686472617720746f207a65726f20616464726573730000604082015260600190565b634e487b7160e01b600052601160045260246000fd5b6000600160ff1b82016121355761213561210a565b5060000390565b600063ffffffff8216806121525761215261210a565b6000190192915050565b600080600080600080600080610100898b03121561217957600080fd5b505086516020880151604089015160608a015160808b015160a08c015160c08d015160e0909d0151959e949d50929b919a50985090965094509092509050565b600060208083528351808285015260005b818110156121e6578581018301518582016040015282016121ca565b506000604082860101526040601f19601f8301168501019250505092915050565b81835281816020850137506000828201602090810191909152601f909101601f19169091010190565b6001600160a01b038b811682528a81166020830152604082018a9052606082018990528781166080830152861660a082015261010060c0820181905260009061227c8382018789612207565b905082810360e0840152612291818587612207565b9d9c50505050505050505050505050565b6000600182016122b4576122b461210a565b5060010190565b6000808335601e198436030181126122d257600080fd5b830160208101925035905067ffffffffffffffff8111156122f257600080fd5b80360382131561206157600080fd5b60208152612322602082016123158461207f565b6001600160a01b03169052565b60208201356040820152600061233b60408401846122bb565b61014080606086015261235361016086018385612207565b925061236260608701876122bb565b9250601f198087860301608088015261237c858584612207565b945061238a6080890161207f565b6001600160a01b03811660a0890152935060a088013560c08801526123b160c0890161207f565b6001600160a01b03811660e089015293506123ce60e0890161207f565b935061010091506123e9828801856001600160a01b03169052565b6123f5828901896122bb565b94509150610120818887030181890152612410868685612207565b955061241e818a018a6122bb565b955092505080878603018388015250612438848483612207565b979650505050505050565b634e487b7160e01b600052601260045260246000fd5b60008261246857612468612443565b500690565b63ffffffff82811682821603908082111561248a5761248a61210a565b5092915050565b602081526000611f91602083018486612207565b61020081016124b48287611eee565b6124c16040830186611f17565b6124ce60c0830185611eee565b61010082018360005b60088110156124f65781518352602092830192909101906001016124d7565b50505095945050505050565b600181815b8085111561253f578163ffffffff048211156125255761252561210a565b8085161561253257918102915b93841c9390800290612507565b509250929050565b60008261255657506001610509565b8161256357506000610509565b81600181146125795760028114612583576125b4565b6001915050610509565b60ff8411156125945761259461210a565b6001841b915063ffffffff8211156125ae576125ae61210a565b50610509565b5060208310610133831016604e8410600b84101617156125eb575081810a63ffffffff8111156125e6576125e661210a565b610509565b6125f58383612502565b8063ffffffff0482111561260b5761260b61210a565b029392505050565b600063ffffffff610505818516828516612547565b600063ffffffff8084168061263f5761263f612443565b92169190910492915050565b600063ffffffff8084168061266257612662612443565b92169190910692915050565b600063ffffffff8083168181036126875761268761210a565b6001019392505050565b63ffffffff81811683821601908082111561248a5761248a61210a56fe30644e72e131a029b85045b68181585d2833e84879b9709143e1f593f0000001a264697066735822122000c02f335128d74aa63963f34b13f710c35383e983df25026bbfd6615facff7064736f6c63430008120033",
  "linkReferences": {},
  "deployedLinkReferences": {}
}