{
  "_format": "hh-sol-artifact-1",
  "contractName": "MultiAssetShieldedPool",
  "sourceName": "contracts/MultiAssetShieldedPool.sol",
  "abi": [
    {
      "inputs": [
        {
          "internalType": "address",
          "name": "_hasherAddress",
          "type": "address"
        },
        {
          "internalType": "address",
          "name": "_verifier",
          "type": "address"
        },
        {
          "internalType": "address",
          "name": "_swapExecutor",
          "type": "address"
        }
      ],
      "stateMutability": "nonpayable",
      "type": "constructor"
    },
    {
      "anonymous": false,
      "inputs": [
        {
          "indexed": true,
          "internalType": "bytes32",
          "name": "commitment",
          "type": "bytes32"
        },
        {
          "indexed": true,
          "internalType": "uint256",
          "name": "index",
          "type": "uint256"
        },
        {
          "indexed": false,
          "internalType": "bytes",
          "name": "encryptedOutput",
          "type": "bytes"
        }
      ],
      "name": "NewCommitment",
      "type": "event"
    },
    {
      "anonymous": false,
      "inputs": [
        {
          "indexed": true,
          "internalType": "bytes32",
          "name": "nullifier",
          "type": "bytes32"
        }
      ],
      "name": "NewNullifier",
      "type": "event"
    },
    {
      "inputs": [],
      "name": "FIELD_SIZE",
      "outputs": [
        {
          "internalType": "uint256",
          "name": "",
          "type": "uint256"
        }
      ],
      "stateMutability": "view",
      "type": "function"
    },
    {
      "inputs": [],
      "name": "MAX_EXT_AMOUNT",
      "outputs": [
        {
          "internalType": "int256",
          "name": "",
          "type": "int256"
        }
      ],
      "stateMutability": "view",
      "type": "function"
    },
    {
      "inputs": [],
      "name": "ROOT_HISTORY_SIZE",
      "outputs": [
        {
          "internalType": "uint32",
          "name": "",
          "type": "uint32"
        }
      ],
      "stateMutability": "view",
      "type": "function"
    },
    {
      "inputs": [],
      "name": "ZERO_VALUE",
      "outputs": [
        {
          "internalType": "uint256",
          "name": "",
          "type": "uint256"
        }
      ],
      "stateMutability": "view",
      "type": "function"
    },
    {
      "inputs": [],
      "name": "currentRootIndex",
      "outputs": [
        {
          "internalType": "uint32",
          "name": "",
          "type": "uint32"
        }
      ],
      "stateMutability": "view",
      "type": "function"
    },
    {
      "inputs": [
        {
          "internalType": "uint256",
          "name": "",
          "type": "uint256"
        }
      ],
      "name": "filledSubtrees",
      "outputs": [
        {
          "internalType": "bytes32",
          "name": "",
          "type": "bytes32"
        }
      ],
      "stateMutability": "view",
      "type": "function"
    },
    {
      "inputs": [],
      "name": "getLastRoot",
      "outputs": [
        {
          "internalType": "bytes32",
          "name": "",
          "type": "bytes32"
        }
      ],
      "stateMutability": "view",
      "type": "function"
    },
    {
      "inputs": [
        {
          "internalType": "bytes32",
          "name": "_left",
          "type": "bytes32"
        },
        {
          "internalType": "bytes32",
          "name": "_right",
          "type": "bytes32"
        }
      ],
      "name": "hashLeftRight",
      "outputs": [
        {
          "internalType": "bytes32",
          "name": "",
          "type": "bytes32"
        }
      ],
      "stateMutability": "view",
      "type": "function"
    },
    {
      "inputs": [],
      "name": "hasher",
      "outputs": [
        {
          "internalType": "contract IHasher",
          "name": "",
          "type": "address"
        }
      ],
      "stateMutability": "view",
      "type": "function"
    },
    {
      "inputs": [
        {
          "internalType": "bytes32",
          "name": "_root",
          "type": "bytes32"
        }
      ],
      "name": "isKnownRoot",
      "outputs": [
        {
          "internalType": "bool",
          "name": "",
          "type": "bool"
        }
      ],
      "stateMutability": "view",
      "type": "function"
    },
    {
      "inputs": [
        {
          "internalType": "bytes32",
          "name": "_nullifierHash",
          "type": "bytes32"
        }
      ],
      "name": "isSpent",
      "outputs": [
        {
          "internalType": "bool",
          "name": "",
          "type": "bool"
        }
      ],
      "stateMutability": "view",
      "type": "function"
    },
    {
      "inputs": [],
      "name": "levels",
      "outputs": [
        {
          "internalType": "uint32",
          "name": "",
          "type": "uint32"
        }
      ],
      "stateMutability": "view",
      "type": "function"
    },
    {
      "inputs": [],
      "name": "nextIndex",
      "outputs": [
        {
          "internalType": "uint32",
          "name": "",
          "type": "uint32"
        }
      ],
      "stateMutability": "view",
      "type": "function"
    },
    {
      "inputs": [
        {
          "internalType": "bytes32",
          "name": "",
          "type": "bytes32"
        }
      ],
      "name": "nullifierHashes",
      "outputs": [
        {
          "internalType": "bool",
          "name": "",
          "type": "bool"
        }
      ],
      "stateMutability": "view",
      "type": "function"
    },
    {
      "inputs": [
        {
          "internalType": "uint256",
          "name": "",
          "type": "uint256"
        }
      ],
      "name": "roots",
      "outputs": [
        {
          "internalType": "bytes32",
          "name": "",
          "type": "bytes32"
        }
      ],
      "stateMutability": "view",
      "type": "function"
    },
    {
      "inputs": [],
      "name": "swapExecutor",
      "outputs": [
        {
          "internalType": "contract SwapExecutor",
          "name": "",
          "type": "address"
        }
      ],
      "stateMutability": "view",
      "type": "function"
    },
    {
      "inputs": [
        {
          "components": [
            {
              "components": [
                {
                  "internalType": "bytes",
                  "name": "proof",
                  "type": "bytes"
                },
                {
                  "internalType": "bytes32",
                  "name": "root",
                  "type": "bytes32"
                },
                {
                  "internalType": "bytes32[2]",
                  "name": "inputNullifiers",
                  "type": "bytes32[2]"
                },
                {
                  "internalType": "bytes32[2]",
                  "name": "outputCommitments",
                  "type": "bytes32[2]"
                },
                {
                  "internalType": "uint256",
                  "name": "publicAmount",
                  "type": "uint256"
                },
                {
                  "internalType": "address",
                  "name": "publicAsset",
                  "type": "address"
                },
                {
                  "internalType": "bytes32",
                  "name": "extDataHash",
                  "type": "bytes32"
                }
              ],
              "internalType": "struct ShieldedPool.ProofArguments",
              "name": "proofArguments",
              "type": "tuple"
            },
            {
              "components": [
                {
                  "internalType": "address",
                  "name": "recipient",
                  "type": "address"
                },
                {
                  "internalType": "int256",
                  "name": "extAmount",
                  "type": "int256"
                },
                {
                  "internalType": "bytes",
                  "name": "encryptedOutput1",
                  "type": "bytes"
                },
                {
                  "internalType": "bytes",
                  "name": "encryptedOutput2",
                  "type": "bytes"
                },
                {
                  "internalType": "address",
                  "name": "tokenOut",
                  "type": "address"
                },
                {
                  "internalType": "uint256",
                  "name": "amountOutMin",
                  "type": "uint256"
                },
                {
                  "internalType": "address",
                  "name": "swapRecipient",
                  "type": "address"
                },
                {
                  "internalType": "address",
                  "name": "swapRouter",
                  "type": "address"
                },
                {
                  "internalType": "bytes",
                  "name": "swapData",
                  "type": "bytes"
                },
                {
                  "internalType": "bytes",
                  "name": "transactData",
                  "type": "bytes"
                }
              ],
              "internalType": "struct ShieldedPool.ExtData",
              "name": "extData",
              "type": "tuple"
            }
          ],
          "internalType": "struct ShieldedPool.Proof",
          "name": "_proof",
          "type": "tuple"
        }
      ],
      "name": "transact",
      "outputs": [],
      "stateMutability": "nonpayable",
      "type": "function"
    },
    {
      "inputs": [
        {
          "components": [
            {
              "components": [
                {
                  "internalType": "bytes",
                  "name": "proof",
                  "type": "bytes"
                },
                {
                  "internalType": "bytes32",
                  "name": "root",
                  "type": "bytes32"
                },
                {
                  "internalType": "bytes32[2]",
                  "name": "inputNullifiers",
                  "type": "bytes32[2]"
                },
                {
                  "internalType": "bytes32[2]",
                  "name": "outputCommitments",
                  "type": "bytes32[2]"
                },
                {
                  "internalType": "uint256",
                  "name": "publicAmount",
                  "type": "uint256"
                },
                {
                  "internalType": "address",
                  "name": "publicAsset",
                  "type": "address"
                },
                {
                  "internalType": "bytes32",
                  "name": "extDataHash",
                  "type": "bytes32"
                }
              ],
              "internalType": "struct ShieldedPool.ProofArguments",
              "name": "proofArguments",
              "type": "tuple"
            },
            {
              "components": [
                {
                  "internalType": "address",
                  "name": "recipient",
                  "type": "address"
                },
                {
                  "internalType": "int256",
                  "name": "extAmount",
                  "type": "int256"
                },
                {
                  "internalType": "bytes",
                  "name": "encryptedOutput1",
                  "type": "bytes"
                },
                {
                  "internalType": "bytes",
                  "name": "encryptedOutput2",
                  "type": "bytes"
                },
                {
                  "internalType": "address",
                  "name": "tokenOut",
                  "type": "address"
                },
                {
                  "internalType": "uint256",
                  "name": "amountOutMin",
                  "type": "uint256"
                },
                {
                  "internalType": "address",
                  "name": "swapRecipient",
                  "type": "address"
                },
                {
                  "internalType": "address",
                  "name": "swapRouter",
                  "type": "address"
                },
                {
                  "internalType": "bytes",
                  "name": "swapData",
                  "type": "bytes"
                },
                {
                  "internalType": "bytes",
                  "name": "transactData",
                  "type": "bytes"
                }
              ],
              "internalType": "struct ShieldedPool.ExtData",
              "name": "extData",
              "type": "tuple"
            }
          ],
          "internalType": "struct ShieldedPool.Proof",
          "name": "_proof",
          "type": "tuple"
        }
      ],
      "name": "transactAndSwap",
      "outputs": [],
      "stateMutability": "nonpayable",
      "type": "function"
    },
    {
      "inputs": [],
      "name": "verifier",
      "outputs": [
        {
          "internalType": "contract TransactionVerifier",
          "name": "",
          "type": "address"
        }
      ],
      "stateMutability": "view",
      "type": "function"
    },
    {
      "inputs": [
        {
          "internalType": "uint256",
          "name": "i",
          "type": "uint256"
        }
      ],
      "name": "zeros",
      "outputs": [
        {
          "internalType": "bytes32",
          "name": "",
          "type": "bytes32"
        }
      ],
      "stateMutability": "pure",
      "type": "function"
    }
  ],
  "bytecode": "0x60c0604052600280546001600160401b0319169055600160f81b6003553480156200002957600080fd5b5060405162002cc938038062002cc98339810160408190526200004c9162000841565b6005838383838362000062565b60405180910390fd5b60208263ffffffff1610620000ba5760405162461bcd60e51b815260206004820152601e60248201527f5f6c6576656c732073686f756c64206265206c657373207468616e2033320000604482015260640162000059565b63ffffffff90911660a0526001600160a01b03908116608052600580548483166001600160a01b03199182161790915560068054928416929091169190911790556200010562000112565b50505050505050620008bd565b60005b60a05163ffffffff168163ffffffff16101562000168576200013d63ffffffff8216620001aa565b63ffffffff8216600090815260208190526040902055806200015f816200088b565b91505062000115565b5060a0516200017d9063ffffffff16620001aa565b6000805260016020527fa6eef7e35abe7026729641147f7915573c7e97b47efa546f5f6e3230263bcb4955565b600081600003620001dc57507f2fe54c60d3acabf3343a35b6eba15db4821b340f76e741e2249685ed4899af6c919050565b816001036200020c57507f13e37f2d6cb86c78ccc1788607c2b199788c6bb0a615a21f2e7a8e88384222f8919050565b816002036200023c57507f217126fa352c326896e8c2803eec8fd63ad50cf65edfef27a41a9e32dc622765919050565b816003036200026c57507f0e28a61a9b3e91007d5a9e3ada18e1b24d6d230c618388ee5df34cacd7397eee919050565b816004036200029c57507f27953447a6979839536badc5425ed15fadb0e292e9bc36f92f0aa5cfa5013587919050565b81600503620002cc57507f194191edbfb91d10f6a7afd315f33095410c7801c47175c2df6dc2cce0e3affc919050565b81600603620002fc57507f1733dece17d71190516dbaf1927936fa643dc7079fc0cc731de9d6845a47741f919050565b816007036200032c57507f267855a7dc75db39d81d17f95d0a7aa572bf5ae19f4db0e84221d2b2ef999219919050565b816008036200035c57507f1184e11836b4c36ad8238a340ecc0985eeba665327e33e9b0e3641027c27620d919050565b816009036200038c57507f0702ab83a135d7f55350ab1bfaa90babd8fc1d2b3e6a7215381a7b2213d6c5ce919050565b81600a03620003bc57507f2eecc0de814cfd8c57ce882babb2e30d1da56621aef7a47f3291cffeaec26ad7919050565b81600b03620003ec57507f280bc02145c155d5833585b6c7b08501055157dd30ce005319621dc462d33b47919050565b81600c036200041c57507f045132221d1fa0a7f4aed8acd2cbec1e2189b7732ccb2ec272b9c60f0d5afc5b919050565b81600d036200044c57507f27f427ccbf58a44b1270abbe4eda6ba53bd6ac4d88cf1e00a13c4371ce71d366919050565b81600e036200047c57507f1617eaae5064f26e8f8a6493ae92bfded7fde71b65df1ca6d5dcec0df70b2cef919050565b81600f03620004ac57507f20c6b400d0ea1b15435703c31c31ee63ad7ba5c8da66cec2796feacea575abca919050565b81601003620004dc57507f09589ddb438723f53a8e57bdada7c5f8ed67e8fece3889a73618732965645eec919050565b816011036200050b57507e64b6a738a5ff537db7b220f3394f0ecbd35bfd355c5425dc1166bf3236079b919050565b816012036200053b57507f095de56281b1d5055e897c3574ff790d5ee81dbc5df784ad2d67795e557c9e9f919050565b816013036200056b57507f11cf2e2887aa21963a6ec14289183efe4d4c60f14ecd3d6fe0beebdf855a9b63919050565b816014036200059b57507f2b0f6fc0179fa65b6f73627c0e1e84c7374d2eaec44c9a48f2571393ea77bcbb919050565b81601503620005cb57507f16fdb637c2abf9c0f988dbf2fd64258c46fb6a273d537b2cf1603ea460b13279919050565b81601603620005fb57507f21bbd7e944f6124dad4c376df9cc12e7ca66e47dff703ff7cedb1a454edcf0ff919050565b816017036200062b57507f2784f8220b1c963e468f590f137baaa1625b3b92a27ad9b6e84eb0d3454d9962919050565b816018036200065b57507f16ace1a65b7534142f8cc1aad810b3d6a7a74ca905d9c275cb98ba57e509fc10919050565b816019036200068b57507f2328068c6a8c24265124debd8fe10d3f29f0665ea725a65e3638f6192a96a013919050565b81601a03620006bb57507f2ddb991be1f028022411b4c4d2c22043e5e751c120736f00adf54acab1c9ac14919050565b81601b03620006eb57507f0113798410eaeb95056a464f70521eb58377c0155f2fe518a5594d38cc209cc0919050565b81601c036200071b57507f202d1ae61526f0d0d01ef80fb5d4055a7af45721024c2c24cffd6a3798f54d50919050565b81601d036200074b57507f23ab323453748129f2765f79615022f5bebd6f4096a796300aab049a60b0f187919050565b81601e036200077b57507f1f15585f8947e378bcf8bd918716799da909acdb944c57150b1eb4565fda8aa0919050565b81601f03620007ab57507f1eb064b21055ac6a350cf41eb30e4ce2cb19680217df3a243617c2838185ad06919050565b81602003620007db57507f25a90efc49af54a5b7154a6eaba978dcf04796b4984fe54be8d4ea8579e1f1e6919050565b60405162461bcd60e51b815260206004820152601360248201527f496e646578206f7574206f6620626f756e647300000000000000000000000000604482015260640162000059565b919050565b80516001600160a01b03811681146200082457600080fd5b6000806000606084860312156200085757600080fd5b620008628462000829565b9250620008726020850162000829565b9150620008826040850162000829565b90509250925092565b600063ffffffff808316818103620008b357634e487b7160e01b600052601160045260246000fd5b6001019392505050565b60805160a0516123d1620008f8600039600081816101cf01528181611a630152611b20015260008181610314015261045a01526123d16000f3fe608060405234801561001057600080fd5b506004361061012c5760003560e01c806390eeb02b116100ad578063e829558811610071578063e8295588146102d5578063ec732959146102e8578063ed33639f1461030f578063f178e47c14610336578063fc7e9c6f1461035657600080fd5b806390eeb02b1461025d578063ba70f7571461026d578063c2b40ae41461028a578063cd87a3b4146102aa578063e5285dcc146102b257600080fd5b806362274329116100f457806362274329146102065780636d9833e31461021b57806375d8498f1461022e5780637fe24ffe1461024157806384fcec461461024a57600080fd5b806317cc915c146101315780632b7ac3f31461016957806338bf282e14610194578063414a37ba146101b55780634ecf518b146101ca575b600080fd5b61015461013f366004611c90565b60046020526000908152604090205460ff1681565b60405190151581526020015b60405180910390f35b60055461017c906001600160a01b031681565b6040516001600160a01b039091168152602001610160565b6101a76101a2366004611ca9565b61036e565b604051908152602001610160565b6101a760008051602061237c83398151915281565b6101f17f000000000000000000000000000000000000000000000000000000000000000081565b60405163ffffffff9091168152602001610160565b610219610214366004611ccb565b6104e2565b005b610154610229366004611c90565b6106f6565b61021961023c366004611ccb565b610774565b6101a760035481565b60065461017c906001600160a01b031681565b6002546101f19063ffffffff1681565b60025463ffffffff166000908152600160205260409020546101a7565b6101a7610298366004611c90565b60016020526000908152604090205481565b6101f1606481565b6101546102c0366004611c90565b60009081526004602052604090205460ff1690565b6101a76102e3366004611c90565b6108af565b6101a77f2fe54c60d3acabf3343a35b6eba15db4821b340f76e741e2249685ed4899af6c81565b61017c7f000000000000000000000000000000000000000000000000000000000000000081565b6101a7610344366004611c90565b60006020819052908152604090205481565b6002546101f190640100000000900463ffffffff1681565b600060008051602061237c83398151915283106103d25760405162461bcd60e51b815260206004820181905260248201527f5f6c6566742073686f756c6420626520696e7369646520746865206669656c6460448201526064015b60405180910390fd5b60008051602061237c83398151915282106104395760405162461bcd60e51b815260206004820152602160248201527f5f72696768742073686f756c6420626520696e7369646520746865206669656c6044820152601960fa1b60648201526084016103c9565b610441611c72565b8381526020810183905260405163014cf2b360e51b81527f00000000000000000000000000000000000000000000000000000000000000006001600160a01b03169063299e566090610497908490600401611d23565b602060405180830381865afa1580156104b4573d6000803e3d6000fd5b505050506040513d601f19601f820116820180604052508101906104d89190611d54565b9150505b92915050565b60006104f16020830183611d6d565b6020013513156105b85760006105078280611d8e565b6105199061010081019060e001611dbc565b90506001600160a01b0381166323b872dd33306105396020870187611d6d565b6040516001600160e01b031960e086901b1681526001600160a01b0393841660048201529290911660248301526020013560448201526064016020604051808303816000875af1158015610591573d6000803e3d6000fd5b505050506040513d601f19601f820116820180604052508101906105b59190611dd7565b50505b6105c181610f02565b60006105d06020830183611d6d565b6020013512156106f35760006105e96020830183611d6d565b6105f7906020810190611dbc565b6001600160a01b03160361061d5760405162461bcd60e51b81526004016103c990611df9565b60006106298280611d8e565b61063b9061010081019060e001611dbc565b90506001600160a01b03811663a9059cbb6106596020850185611d6d565b610667906020810190611dbc565b6106746020860186611d6d565b6020013561068190611e46565b6040516001600160e01b031960e085901b1681526001600160a01b03909216600483015260248201526044016020604051808303816000875af11580156106cc573d6000803e3d6000fd5b505050506040513d601f19601f820116820180604052508101906106f09190611dd7565b50505b50565b600081810361070757506000919050565b60025463ffffffff16805b63ffffffff81166000908152600160205260409020548403610738575060019392505050565b8063ffffffff1660000361074a575060645b8061075481611e62565b9150508163ffffffff168163ffffffff1603610712575060009392505050565b60006107836020830183611d6d565b6020013512156108a657600061079c6020830183611d6d565b6107aa906020810190611dbc565b6001600160a01b0316036107d05760405162461bcd60e51b81526004016103c990611df9565b60006107dc8280611d8e565b6107ee9061010081019060e001611dbc565b90506001600160a01b03811663a9059cbb61080c6020850185611d6d565b61081a906020810190611dbc565b6108276020860186611d6d565b6020013561083490611e46565b6040516001600160e01b031960e085901b1681526001600160a01b03909216600483015260248201526044016020604051808303816000875af115801561087f573d6000803e3d6000fd5b505050506040513d601f19601f820116820180604052508101906108a39190611dd7565b50505b6106f381610f94565b6000816000036108e057507f2fe54c60d3acabf3343a35b6eba15db4821b340f76e741e2249685ed4899af6c919050565b8160010361090f57507f13e37f2d6cb86c78ccc1788607c2b199788c6bb0a615a21f2e7a8e88384222f8919050565b8160020361093e57507f217126fa352c326896e8c2803eec8fd63ad50cf65edfef27a41a9e32dc622765919050565b8160030361096d57507f0e28a61a9b3e91007d5a9e3ada18e1b24d6d230c618388ee5df34cacd7397eee919050565b8160040361099c57507f27953447a6979839536badc5425ed15fadb0e292e9bc36f92f0aa5cfa5013587919050565b816005036109cb57507f194191edbfb91d10f6a7afd315f33095410c7801c47175c2df6dc2cce0e3affc919050565b816006036109fa57507f1733dece17d71190516dbaf1927936fa643dc7079fc0cc731de9d6845a47741f919050565b81600703610a2957507f267855a7dc75db39d81d17f95d0a7aa572bf5ae19f4db0e84221d2b2ef999219919050565b81600803610a5857507f1184e11836b4c36ad8238a340ecc0985eeba665327e33e9b0e3641027c27620d919050565b81600903610a8757507f0702ab83a135d7f55350ab1bfaa90babd8fc1d2b3e6a7215381a7b2213d6c5ce919050565b81600a03610ab657507f2eecc0de814cfd8c57ce882babb2e30d1da56621aef7a47f3291cffeaec26ad7919050565b81600b03610ae557507f280bc02145c155d5833585b6c7b08501055157dd30ce005319621dc462d33b47919050565b81600c03610b1457507f045132221d1fa0a7f4aed8acd2cbec1e2189b7732ccb2ec272b9c60f0d5afc5b919050565b81600d03610b4357507f27f427ccbf58a44b1270abbe4eda6ba53bd6ac4d88cf1e00a13c4371ce71d366919050565b81600e03610b7257507f1617eaae5064f26e8f8a6493ae92bfded7fde71b65df1ca6d5dcec0df70b2cef919050565b81600f03610ba157507f20c6b400d0ea1b15435703c31c31ee63ad7ba5c8da66cec2796feacea575abca919050565b81601003610bd057507f09589ddb438723f53a8e57bdada7c5f8ed67e8fece3889a73618732965645eec919050565b81601103610bfe57507e64b6a738a5ff537db7b220f3394f0ecbd35bfd355c5425dc1166bf3236079b919050565b81601203610c2d57507f095de56281b1d5055e897c3574ff790d5ee81dbc5df784ad2d67795e557c9e9f919050565b81601303610c5c57507f11cf2e2887aa21963a6ec14289183efe4d4c60f14ecd3d6fe0beebdf855a9b63919050565b81601403610c8b57507f2b0f6fc0179fa65b6f73627c0e1e84c7374d2eaec44c9a48f2571393ea77bcbb919050565b81601503610cba57507f16fdb637c2abf9c0f988dbf2fd64258c46fb6a273d537b2cf1603ea460b13279919050565b81601603610ce957507f21bbd7e944f6124dad4c376df9cc12e7ca66e47dff703ff7cedb1a454edcf0ff919050565b81601703610d1857507f2784f8220b1c963e468f590f137baaa1625b3b92a27ad9b6e84eb0d3454d9962919050565b81601803610d4757507f16ace1a65b7534142f8cc1aad810b3d6a7a74ca905d9c275cb98ba57e509fc10919050565b81601903610d7657507f2328068c6a8c24265124debd8fe10d3f29f0665ea725a65e3638f6192a96a013919050565b81601a03610da557507f2ddb991be1f028022411b4c4d2c22043e5e751c120736f00adf54acab1c9ac14919050565b81601b03610dd457507f0113798410eaeb95056a464f70521eb58377c0155f2fe518a5594d38cc209cc0919050565b81601c03610e0357507f202d1ae61526f0d0d01ef80fb5d4055a7af45721024c2c24cffd6a3798f54d50919050565b81601d03610e3257507f23ab323453748129f2765f79615022f5bebd6f4096a796300aab049a60b0f187919050565b81601e03610e6157507f1f15585f8947e378bcf8bd918716799da909acdb944c57150b1eb4565fda8aa0919050565b81601f03610e9057507f1eb064b21055ac6a350cf41eb30e4ce2cb19680217df3a243617c2838185ad06919050565b81602003610ebf57507f25a90efc49af54a5b7154a6eaba978dcf04796b4984fe54be8d4ea8579e1f1e6919050565b60405162461bcd60e51b8152602060048201526013602482015272496e646578206f7574206f6620626f756e647360681b60448201526064016103c9565b919050565b6006546001600160a01b0316610f1b6020830183611d6d565b610f29906020810190611dbc565b6001600160a01b031603610f8b5760405162461bcd60e51b8152602060048201526024808201527f726563697069656e742073686f756c64206e6f742062652073776170457865636044820152633aba37b960e11b60648201526084016103c9565b6106f381611322565b6000610fa36020830183611d6d565b6020013512610ff45760405162461bcd60e51b815260206004820152601c60248201527f657874416d6f756e742073686f756c64206265206e656761746976650000000060448201526064016103c9565b60006110008280611d8e565b6110129061010081019060e001611dbc565b6001600160a01b0316036110685760405162461bcd60e51b815260206004820152601d60248201527f7075626c696341737365742073686f756c64206e6f742062652030783000000060448201526064016103c9565b61107181611322565b6006546001600160a01b031661108a6020830183611d6d565b611098906020810190611dbc565b6001600160a01b0316146110f95760405162461bcd60e51b815260206004820152602260248201527f6f6e6c7920737761704578656375746f722063616e20626520726563697069656044820152611b9d60f21b60648201526084016103c9565b60006111086020830183611d6d565b6111199060a0810190608001611dbc565b6001600160a01b03160361116f5760405162461bcd60e51b815260206004820152601a60248201527f746f6b656e4f75742073686f756c64206e6f742062652030783000000000000060448201526064016103c9565b600061117e6020830183611d6d565b60a00135116111dd5760405162461bcd60e51b815260206004820152602560248201527f616d6f756e744f75744d696e2073686f756c6420626520677265617465722074604482015264068616e20360dc1b60648201526084016103c9565b6006546001600160a01b031663a0c6a6ef6111f88380611d8e565b61120a9061010081019060e001611dbc565b6112176020850185611d6d565b6112289060a0810190608001611dbc565b6112356020860186611d6d565b6020013561124290611e46565b61124f6020870187611d6d565b60a001356112606020880188611d6d565b6112729061010081019060e001611dbc565b61127f6020890189611d6d565b6112909060e081019060c001611dbc565b61129d60208a018a611d6d565b6112ac90610100810190611e82565b6112b960208c018c611d6d565b6112c890610120810190611e82565b6040518b63ffffffff1660e01b81526004016112ed9a99989796959493929190611ef9565b600060405180830381600087803b15801561130757600080fd5b505af115801561131b573d6000803e3d6000fd5b5050505050565b61133861132f8280611d8e565b602001356106f6565b61137a5760405162461bcd60e51b8152602060048201526013602482015272125b9d985b1a59081b595c9adb19481c9bdbdd606a1b60448201526064016103c9565b60005b6113878280611d8e565b506002811015611424576113cc61139e8380611d8e565b60400182600281106113b2576113b2611d0d565b602002013560009081526004602052604090205460ff1690565b156114125760405162461bcd60e51b8152602060048201526016602482015275125b9c1d5d081a5cc8185b1c9958591e481cdc195b9d60521b60448201526064016103c9565b8061141c81611f6b565b91505061137d565b5060008051602061237c8339815191526114416020830183611d6d565b6040516020016114519190611fca565b6040516020818303038152906040528051906020012060001c6114749190612122565b61147e8280611d8e565b6101000135146114d05760405162461bcd60e51b815260206004820152601c60248201527f496e636f72726563742065787465726e616c206461746120686173680000000060448201526064016103c9565b6003546114dc90611e46565b6114e96020830183611d6d565b6020013513801561150b57506003546115056020830183611d6d565b60200135125b61154f5760405162461bcd60e51b8152602060048201526015602482015274125b9d985b1a59081c1d589b1a58c8185b5bdd5b9d605a1b60448201526064016103c9565b6040805160088082526101208201909252600091602082016101008036833701905050905061157e8280611d8e565b6020013560001c8160008151811061159857611598611d0d565b60209081029190910101526115ad8280611d8e565b60c00135816001815181106115c4576115c4611d0d565b60209081029190910101526115d98280611d8e565b6115eb9061010081019060e001611dbc565b6001600160a01b03168160028151811061160757611607611d0d565b602090810291909101015261161c8280611d8e565b610100013560001c8160038151811061163757611637611d0d565b602090810291909101015261164c8280611d8e565b6040016000602002013560001c8160048151811061166c5761166c611d0d565b60209081029190910101526116818280611d8e565b8151606090910135908290600590811061169d5761169d611d0d565b60209081029190910101526116b28280611d8e565b6080016000602002013560001c816006815181106116d2576116d2611d0d565b60209081029190910101526116e78280611d8e565b815160a090910135908290600790811061170357611703611d0d565b60209081029190910101526005546001600160a01b0316631e8e1e136117298480611d8e565b6117339080611e82565b846040518463ffffffff1660e01b815260040161175293929190612136565b602060405180830381865afa15801561176f573d6000803e3d6000fd5b505050506040513d601f19601f820116820180604052508101906117939190611dd7565b6117cf5760405162461bcd60e51b815260206004820152600d60248201526c24b73b30b634b210383937b7b360991b60448201526064016103c9565b60005b6117dc8380611d8e565b506002811015611847576001600460006117f68680611d8e565b604001846002811061180a5761180a611d0d565b6020020135815260200190815260200160002060006101000a81548160ff021916908315150217905550808061183f90611f6b565b9150506117d2565b5060006118576020840184611d6d565b6020013512156118a45760006118706020840184611d6d565b61187e906020810190611dbc565b6001600160a01b0316036118a45760405162461bcd60e51b81526004016103c990611df9565b6118c86118b18380611d8e565b608001356118bf8480611d8e565b60a00135611a46565b50600280546118e59190640100000000900463ffffffff1661218f565b63ffffffff166118f58380611d8e565b608001357ff3843eddcfcac65d12d9f26261dab50671fdbf5dc44441816c8bbdace2411afd6119276020860186611d6d565b611935906040810190611e82565b6040516119439291906121b3565b60405180910390a360025461196890600190640100000000900463ffffffff1661218f565b63ffffffff166119788380611d8e565b60a001357ff3843eddcfcac65d12d9f26261dab50671fdbf5dc44441816c8bbdace2411afd6119aa6020860186611d6d565b6119b8906060810190611e82565b6040516119c69291906121b3565b60405180910390a360005b6119db8380611d8e565b5060028110156106f0576119ef8380611d8e565b6040018160028110611a0357611a03611d0d565b60200201357f5e58f77bbf94b46d8d896e29753e4458c6e59b48581e20ed58c9558e96f297ce60405160405180910390a280611a3e81611f6b565b9150506119d1565b6002805460009164010000000090910463ffffffff1690611a88907f0000000000000000000000000000000000000000000000000000000000000000906122e0565b63ffffffff168163ffffffff1603611afb5760405162461bcd60e51b815260206004820152603060248201527f4d65726b6c6520747265652069732066756c6c2e204e6f206d6f7265206c656160448201526f1d995cc818d85b88189948185919195960821b60648201526084016103c9565b6000611b086002836122f5565b90506000611b16868661036e565b905060008060015b7f000000000000000000000000000000000000000000000000000000000000000063ffffffff168163ffffffff161015611be257611b5d600286612318565b63ffffffff16600003611b9b57839250611b7c8163ffffffff166108af565b63ffffffff821660009081526020819052604090208590559150611bb7565b63ffffffff811660009081526020819052604090205492508391505b611bc1838361036e565b9350611bce6002866122f5565b945080611bda8161233b565b915050611b1e565b50600254600090606490611bfd9063ffffffff16600161235e565b611c079190612318565b6002805463ffffffff191663ffffffff831690811782556000908152600160205260409020869055909150611c3d90879061235e565b6002805463ffffffff929092166401000000000267ffffffff0000000019909216919091179055509394505050505092915050565b60405180604001604052806002906020820280368337509192915050565b600060208284031215611ca257600080fd5b5035919050565b60008060408385031215611cbc57600080fd5b50508035926020909101359150565b600060208284031215611cdd57600080fd5b813567ffffffffffffffff811115611cf457600080fd5b820160408185031215611d0657600080fd5b9392505050565b634e487b7160e01b600052603260045260246000fd5b60408101818360005b6002811015611d4b578151835260209283019290910190600101611d2c565b50505092915050565b600060208284031215611d6657600080fd5b5051919050565b6000823561013e19833603018112611d8457600080fd5b9190910192915050565b6000823561011e19833603018112611d8457600080fd5b80356001600160a01b0381168114610efd57600080fd5b600060208284031215611dce57600080fd5b611d0682611da5565b600060208284031215611de957600080fd5b81518015158114611d0657600080fd5b6020808252601e908201527f43616e277420776974686472617720746f207a65726f20616464726573730000604082015260600190565b634e487b7160e01b600052601160045260246000fd5b6000600160ff1b8201611e5b57611e5b611e30565b5060000390565b600063ffffffff821680611e7857611e78611e30565b6000190192915050565b6000808335601e19843603018112611e9957600080fd5b83018035915067ffffffffffffffff821115611eb457600080fd5b602001915036819003821315611ec957600080fd5b9250929050565b81835281816020850137506000828201602090810191909152601f909101601f19169091010190565b6001600160a01b038b811682528a81166020830152604082018a9052606082018990528781166080830152861660a082015261010060c08201819052600090611f458382018789611ed0565b905082810360e0840152611f5a818587611ed0565b9d9c50505050505050505050505050565b600060018201611f7d57611f7d611e30565b5060010190565b6000808335601e19843603018112611f9b57600080fd5b830160208101925035905067ffffffffffffffff811115611fbb57600080fd5b803603821315611ec957600080fd5b60208152611feb60208201611fde84611da5565b6001600160a01b03169052565b6020820135604082015260006120046040840184611f84565b61014080606086015261201c61016086018385611ed0565b925061202b6060870187611f84565b9250601f1980878603016080880152612045858584611ed0565b945061205360808901611da5565b6001600160a01b03811660a0890152935060a088013560c088015261207a60c08901611da5565b6001600160a01b03811660e0890152935061209760e08901611da5565b935061010091506120b2828801856001600160a01b03169052565b6120be82890189611f84565b945091506101208188870301818901526120d9868685611ed0565b95506120e7818a018a611f84565b955092505080878603018388015250612101848483611ed0565b979650505050505050565b634e487b7160e01b600052601260045260246000fd5b6000826121315761213161210c565b500690565b60408152600061214a604083018587611ed0565b82810360208481019190915284518083528582019282019060005b8181101561218157845183529383019391830191600101612165565b509098975050505050505050565b63ffffffff8281168282160390808211156121ac576121ac611e30565b5092915050565b6020815260006121c7602083018486611ed0565b949350505050565b600181815b8085111561220c578163ffffffff048211156121f2576121f2611e30565b808516156121ff57918102915b93841c93908002906121d4565b509250929050565b600082612223575060016104dc565b81612230575060006104dc565b8160018114612246576002811461225057612281565b60019150506104dc565b60ff84111561226157612261611e30565b6001841b915063ffffffff82111561227b5761227b611e30565b506104dc565b5060208310610133831016604e8410600b84101617156122b8575081810a63ffffffff8111156122b3576122b3611e30565b6104dc565b6122c283836121cf565b8063ffffffff048211156122d8576122d8611e30565b029392505050565b600063ffffffff6104d8818516828516612214565b600063ffffffff8084168061230c5761230c61210c565b92169190910492915050565b600063ffffffff8084168061232f5761232f61210c565b92169190910692915050565b600063ffffffff80831681810361235457612354611e30565b6001019392505050565b63ffffffff8181168382160190808211156121ac576121ac611e3056fe30644e72e131a029b85045b68181585d2833e84879b9709143e1f593f0000001a26469706673582212201f23aa7a33261b32f6cbd51762e764054160705837a6aaacf698d00d1519a29564736f6c63430008120033",
  "linkReferences": {},
  "deployedLinkReferences": {}
}