{
  "_format": "hh-sol-artifact-1",
  "contractName": "MultiAssetShieldedPool",
  "sourceName": "contracts/MultiAssetShieldedPool.sol",
  "abi": [
    {
      "inputs": [
        {
          "internalType": "address",
          "name": "_hasherAddress",
          "type": "address"
        },
        {
          "internalType": "address",
          "name": "_verifier",
          "type": "address"
        },
        {
          "internalType": "address",
          "name": "_swapExecutor",
          "type": "address"
        }
      ],
      "stateMutability": "nonpayable",
      "type": "constructor"
    },
    {
      "anonymous": false,
      "inputs": [
        {
          "indexed": true,
          "internalType": "bytes32",
          "name": "commitment",
          "type": "bytes32"
        },
        {
          "indexed": true,
          "internalType": "uint256",
          "name": "index",
          "type": "uint256"
        },
        {
          "indexed": false,
          "internalType": "bytes",
          "name": "encryptedOutput",
          "type": "bytes"
        }
      ],
      "name": "NewCommitment",
      "type": "event"
    },
    {
      "anonymous": false,
      "inputs": [
        {
          "indexed": true,
          "internalType": "bytes32",
          "name": "nullifier",
          "type": "bytes32"
        }
      ],
      "name": "NewNullifier",
      "type": "event"
    },
    {
      "inputs": [],
      "name": "FIELD_SIZE",
      "outputs": [
        {
          "internalType": "uint256",
          "name": "",
          "type": "uint256"
        }
      ],
      "stateMutability": "view",
      "type": "function"
    },
    {
      "inputs": [],
      "name": "MAX_EXT_AMOUNT",
      "outputs": [
        {
          "internalType": "int256",
          "name": "",
          "type": "int256"
        }
      ],
      "stateMutability": "view",
      "type": "function"
    },
    {
      "inputs": [],
      "name": "ROOT_HISTORY_SIZE",
      "outputs": [
        {
          "internalType": "uint32",
          "name": "",
          "type": "uint32"
        }
      ],
      "stateMutability": "view",
      "type": "function"
    },
    {
      "inputs": [],
      "name": "ZERO_VALUE",
      "outputs": [
        {
          "internalType": "uint256",
          "name": "",
          "type": "uint256"
        }
      ],
      "stateMutability": "view",
      "type": "function"
    },
    {
      "inputs": [],
      "name": "currentRootIndex",
      "outputs": [
        {
          "internalType": "uint32",
          "name": "",
          "type": "uint32"
        }
      ],
      "stateMutability": "view",
      "type": "function"
    },
    {
      "inputs": [
        {
          "internalType": "uint256",
          "name": "",
          "type": "uint256"
        }
      ],
      "name": "filledSubtrees",
      "outputs": [
        {
          "internalType": "bytes32",
          "name": "",
          "type": "bytes32"
        }
      ],
      "stateMutability": "view",
      "type": "function"
    },
    {
      "inputs": [],
      "name": "getLastRoot",
      "outputs": [
        {
          "internalType": "bytes32",
          "name": "",
          "type": "bytes32"
        }
      ],
      "stateMutability": "view",
      "type": "function"
    },
    {
      "inputs": [
        {
          "internalType": "bytes32",
          "name": "_left",
          "type": "bytes32"
        },
        {
          "internalType": "bytes32",
          "name": "_right",
          "type": "bytes32"
        }
      ],
      "name": "hashLeftRight",
      "outputs": [
        {
          "internalType": "bytes32",
          "name": "",
          "type": "bytes32"
        }
      ],
      "stateMutability": "view",
      "type": "function"
    },
    {
      "inputs": [],
      "name": "hasher",
      "outputs": [
        {
          "internalType": "contract IHasher",
          "name": "",
          "type": "address"
        }
      ],
      "stateMutability": "view",
      "type": "function"
    },
    {
      "inputs": [
        {
          "internalType": "bytes32",
          "name": "_root",
          "type": "bytes32"
        }
      ],
      "name": "isKnownRoot",
      "outputs": [
        {
          "internalType": "bool",
          "name": "",
          "type": "bool"
        }
      ],
      "stateMutability": "view",
      "type": "function"
    },
    {
      "inputs": [
        {
          "internalType": "bytes32",
          "name": "_nullifierHash",
          "type": "bytes32"
        }
      ],
      "name": "isSpent",
      "outputs": [
        {
          "internalType": "bool",
          "name": "",
          "type": "bool"
        }
      ],
      "stateMutability": "view",
      "type": "function"
    },
    {
      "inputs": [],
      "name": "levels",
      "outputs": [
        {
          "internalType": "uint32",
          "name": "",
          "type": "uint32"
        }
      ],
      "stateMutability": "view",
      "type": "function"
    },
    {
      "inputs": [],
      "name": "nextIndex",
      "outputs": [
        {
          "internalType": "uint32",
          "name": "",
          "type": "uint32"
        }
      ],
      "stateMutability": "view",
      "type": "function"
    },
    {
      "inputs": [
        {
          "internalType": "bytes32",
          "name": "",
          "type": "bytes32"
        }
      ],
      "name": "nullifierHashes",
      "outputs": [
        {
          "internalType": "bool",
          "name": "",
          "type": "bool"
        }
      ],
      "stateMutability": "view",
      "type": "function"
    },
    {
      "inputs": [
        {
          "internalType": "bytes",
          "name": "data",
          "type": "bytes"
        }
      ],
      "name": "parseProof",
      "outputs": [
        {
          "internalType": "uint256[2]",
          "name": "a",
          "type": "uint256[2]"
        },
        {
          "internalType": "uint256[2][2]",
          "name": "b",
          "type": "uint256[2][2]"
        },
        {
          "internalType": "uint256[2]",
          "name": "c",
          "type": "uint256[2]"
        }
      ],
      "stateMutability": "pure",
      "type": "function"
    },
    {
      "inputs": [
        {
          "internalType": "uint256",
          "name": "",
          "type": "uint256"
        }
      ],
      "name": "roots",
      "outputs": [
        {
          "internalType": "bytes32",
          "name": "",
          "type": "bytes32"
        }
      ],
      "stateMutability": "view",
      "type": "function"
    },
    {
      "inputs": [],
      "name": "swapExecutor",
      "outputs": [
        {
          "internalType": "contract SwapExecutor",
          "name": "",
          "type": "address"
        }
      ],
      "stateMutability": "view",
      "type": "function"
    },
    {
      "inputs": [
        {
          "components": [
            {
              "components": [
                {
                  "internalType": "bytes",
                  "name": "proof",
                  "type": "bytes"
                },
                {
                  "internalType": "bytes32",
                  "name": "root",
                  "type": "bytes32"
                },
                {
                  "internalType": "bytes32[2]",
                  "name": "inputNullifiers",
                  "type": "bytes32[2]"
                },
                {
                  "internalType": "bytes32[2]",
                  "name": "outputCommitments",
                  "type": "bytes32[2]"
                },
                {
                  "internalType": "uint256",
                  "name": "publicAmount",
                  "type": "uint256"
                },
                {
                  "internalType": "address",
                  "name": "publicAsset",
                  "type": "address"
                },
                {
                  "internalType": "bytes32",
                  "name": "extDataHash",
                  "type": "bytes32"
                }
              ],
              "internalType": "struct ShieldedPool.ProofArguments",
              "name": "proofArguments",
              "type": "tuple"
            },
            {
              "components": [
                {
                  "internalType": "address",
                  "name": "recipient",
                  "type": "address"
                },
                {
                  "internalType": "int256",
                  "name": "extAmount",
                  "type": "int256"
                },
                {
                  "internalType": "bytes",
                  "name": "encryptedOutput1",
                  "type": "bytes"
                },
                {
                  "internalType": "bytes",
                  "name": "encryptedOutput2",
                  "type": "bytes"
                },
                {
                  "internalType": "address",
                  "name": "tokenOut",
                  "type": "address"
                },
                {
                  "internalType": "uint256",
                  "name": "amountOutMin",
                  "type": "uint256"
                },
                {
                  "internalType": "address",
                  "name": "swapRecipient",
                  "type": "address"
                },
                {
                  "internalType": "address",
                  "name": "swapRouter",
                  "type": "address"
                },
                {
                  "internalType": "bytes",
                  "name": "swapData",
                  "type": "bytes"
                },
                {
                  "internalType": "bytes",
                  "name": "transactData",
                  "type": "bytes"
                }
              ],
              "internalType": "struct ShieldedPool.ExtData",
              "name": "extData",
              "type": "tuple"
            }
          ],
          "internalType": "struct ShieldedPool.Proof",
          "name": "_proof",
          "type": "tuple"
        }
      ],
      "name": "transact",
      "outputs": [],
      "stateMutability": "nonpayable",
      "type": "function"
    },
    {
      "inputs": [
        {
          "components": [
            {
              "components": [
                {
                  "internalType": "bytes",
                  "name": "proof",
                  "type": "bytes"
                },
                {
                  "internalType": "bytes32",
                  "name": "root",
                  "type": "bytes32"
                },
                {
                  "internalType": "bytes32[2]",
                  "name": "inputNullifiers",
                  "type": "bytes32[2]"
                },
                {
                  "internalType": "bytes32[2]",
                  "name": "outputCommitments",
                  "type": "bytes32[2]"
                },
                {
                  "internalType": "uint256",
                  "name": "publicAmount",
                  "type": "uint256"
                },
                {
                  "internalType": "address",
                  "name": "publicAsset",
                  "type": "address"
                },
                {
                  "internalType": "bytes32",
                  "name": "extDataHash",
                  "type": "bytes32"
                }
              ],
              "internalType": "struct ShieldedPool.ProofArguments",
              "name": "proofArguments",
              "type": "tuple"
            },
            {
              "components": [
                {
                  "internalType": "address",
                  "name": "recipient",
                  "type": "address"
                },
                {
                  "internalType": "int256",
                  "name": "extAmount",
                  "type": "int256"
                },
                {
                  "internalType": "bytes",
                  "name": "encryptedOutput1",
                  "type": "bytes"
                },
                {
                  "internalType": "bytes",
                  "name": "encryptedOutput2",
                  "type": "bytes"
                },
                {
                  "internalType": "address",
                  "name": "tokenOut",
                  "type": "address"
                },
                {
                  "internalType": "uint256",
                  "name": "amountOutMin",
                  "type": "uint256"
                },
                {
                  "internalType": "address",
                  "name": "swapRecipient",
                  "type": "address"
                },
                {
                  "internalType": "address",
                  "name": "swapRouter",
                  "type": "address"
                },
                {
                  "internalType": "bytes",
                  "name": "swapData",
                  "type": "bytes"
                },
                {
                  "internalType": "bytes",
                  "name": "transactData",
                  "type": "bytes"
                }
              ],
              "internalType": "struct ShieldedPool.ExtData",
              "name": "extData",
              "type": "tuple"
            }
          ],
          "internalType": "struct ShieldedPool.Proof",
          "name": "_proof",
          "type": "tuple"
        }
      ],
      "name": "transactAndSwap",
      "outputs": [],
      "stateMutability": "nonpayable",
      "type": "function"
    },
    {
      "inputs": [],
      "name": "verifier",
      "outputs": [
        {
          "internalType": "contract TransactionVerifier",
          "name": "",
          "type": "address"
        }
      ],
      "stateMutability": "view",
      "type": "function"
    },
    {
      "inputs": [
        {
          "internalType": "uint256",
          "name": "i",
          "type": "uint256"
        }
      ],
      "name": "zeros",
      "outputs": [
        {
          "internalType": "bytes32",
          "name": "",
          "type": "bytes32"
        }
      ],
      "stateMutability": "pure",
      "type": "function"
    }
  ],
  "bytecode": "0x60c0604052600280546001600160401b0319169055600160f81b6003553480156200002957600080fd5b5060405162002ed438038062002ed48339810160408190526200004c9162000841565b6005838383838362000062565b60405180910390fd5b60208263ffffffff1610620000ba5760405162461bcd60e51b815260206004820152601e60248201527f5f6c6576656c732073686f756c64206265206c657373207468616e2033320000604482015260640162000059565b63ffffffff90911660a0526001600160a01b03908116608052600580548483166001600160a01b03199182161790915560068054928416929091169190911790556200010562000112565b50505050505050620008bd565b60005b60a05163ffffffff168163ffffffff16101562000168576200013d63ffffffff8216620001aa565b63ffffffff8216600090815260208190526040902055806200015f816200088b565b91505062000115565b5060a0516200017d9063ffffffff16620001aa565b6000805260016020527fa6eef7e35abe7026729641147f7915573c7e97b47efa546f5f6e3230263bcb4955565b600081600003620001dc57507f2fe54c60d3acabf3343a35b6eba15db4821b340f76e741e2249685ed4899af6c919050565b816001036200020c57507f13e37f2d6cb86c78ccc1788607c2b199788c6bb0a615a21f2e7a8e88384222f8919050565b816002036200023c57507f217126fa352c326896e8c2803eec8fd63ad50cf65edfef27a41a9e32dc622765919050565b816003036200026c57507f0e28a61a9b3e91007d5a9e3ada18e1b24d6d230c618388ee5df34cacd7397eee919050565b816004036200029c57507f27953447a6979839536badc5425ed15fadb0e292e9bc36f92f0aa5cfa5013587919050565b81600503620002cc57507f194191edbfb91d10f6a7afd315f33095410c7801c47175c2df6dc2cce0e3affc919050565b81600603620002fc57507f1733dece17d71190516dbaf1927936fa643dc7079fc0cc731de9d6845a47741f919050565b816007036200032c57507f267855a7dc75db39d81d17f95d0a7aa572bf5ae19f4db0e84221d2b2ef999219919050565b816008036200035c57507f1184e11836b4c36ad8238a340ecc0985eeba665327e33e9b0e3641027c27620d919050565b816009036200038c57507f0702ab83a135d7f55350ab1bfaa90babd8fc1d2b3e6a7215381a7b2213d6c5ce919050565b81600a03620003bc57507f2eecc0de814cfd8c57ce882babb2e30d1da56621aef7a47f3291cffeaec26ad7919050565b81600b03620003ec57507f280bc02145c155d5833585b6c7b08501055157dd30ce005319621dc462d33b47919050565b81600c036200041c57507f045132221d1fa0a7f4aed8acd2cbec1e2189b7732ccb2ec272b9c60f0d5afc5b919050565b81600d036200044c57507f27f427ccbf58a44b1270abbe4eda6ba53bd6ac4d88cf1e00a13c4371ce71d366919050565b81600e036200047c57507f1617eaae5064f26e8f8a6493ae92bfded7fde71b65df1ca6d5dcec0df70b2cef919050565b81600f03620004ac57507f20c6b400d0ea1b15435703c31c31ee63ad7ba5c8da66cec2796feacea575abca919050565b81601003620004dc57507f09589ddb438723f53a8e57bdada7c5f8ed67e8fece3889a73618732965645eec919050565b816011036200050b57507e64b6a738a5ff537db7b220f3394f0ecbd35bfd355c5425dc1166bf3236079b919050565b816012036200053b57507f095de56281b1d5055e897c3574ff790d5ee81dbc5df784ad2d67795e557c9e9f919050565b816013036200056b57507f11cf2e2887aa21963a6ec14289183efe4d4c60f14ecd3d6fe0beebdf855a9b63919050565b816014036200059b57507f2b0f6fc0179fa65b6f73627c0e1e84c7374d2eaec44c9a48f2571393ea77bcbb919050565b81601503620005cb57507f16fdb637c2abf9c0f988dbf2fd64258c46fb6a273d537b2cf1603ea460b13279919050565b81601603620005fb57507f21bbd7e944f6124dad4c376df9cc12e7ca66e47dff703ff7cedb1a454edcf0ff919050565b816017036200062b57507f2784f8220b1c963e468f590f137baaa1625b3b92a27ad9b6e84eb0d3454d9962919050565b816018036200065b57507f16ace1a65b7534142f8cc1aad810b3d6a7a74ca905d9c275cb98ba57e509fc10919050565b816019036200068b57507f2328068c6a8c24265124debd8fe10d3f29f0665ea725a65e3638f6192a96a013919050565b81601a03620006bb57507f2ddb991be1f028022411b4c4d2c22043e5e751c120736f00adf54acab1c9ac14919050565b81601b03620006eb57507f0113798410eaeb95056a464f70521eb58377c0155f2fe518a5594d38cc209cc0919050565b81601c036200071b57507f202d1ae61526f0d0d01ef80fb5d4055a7af45721024c2c24cffd6a3798f54d50919050565b81601d036200074b57507f23ab323453748129f2765f79615022f5bebd6f4096a796300aab049a60b0f187919050565b81601e036200077b57507f1f15585f8947e378bcf8bd918716799da909acdb944c57150b1eb4565fda8aa0919050565b81601f03620007ab57507f1eb064b21055ac6a350cf41eb30e4ce2cb19680217df3a243617c2838185ad06919050565b81602003620007db57507f25a90efc49af54a5b7154a6eaba978dcf04796b4984fe54be8d4ea8579e1f1e6919050565b60405162461bcd60e51b815260206004820152601360248201527f496e646578206f7574206f6620626f756e647300000000000000000000000000604482015260640162000059565b919050565b80516001600160a01b03811681146200082457600080fd5b6000806000606084860312156200085757600080fd5b620008628462000829565b9250620008726020850162000829565b9150620008826040850162000829565b90509250925092565b600063ffffffff808316818103620008b357634e487b7160e01b600052601160045260246000fd5b6001019392505050565b60805160a0516125dc620008f8600039600081816101da01528181611ad30152611b90015260008181610341015261048701526125dc6000f3fe608060405234801561001057600080fd5b50600436106101375760003560e01c806384fcec46116100b8578063e5285dcc1161007c578063e5285dcc146102df578063e829558814610302578063ec73295914610315578063ed33639f1461033c578063f178e47c14610363578063fc7e9c6f1461038357600080fd5b806384fcec461461027757806390eeb02b1461028a578063ba70f7571461029a578063c2b40ae4146102b7578063cd87a3b4146102d757600080fd5b806362274329116100ff57806362274329146102115780636d9833e31461022657806375d8498f14610239578063793deea31461024c5780637fe24ffe1461026e57600080fd5b806317cc915c1461013c5780632b7ac3f31461017457806338bf282e1461019f578063414a37ba146101c05780634ecf518b146101d5575b600080fd5b61015f61014a366004611d2d565b60046020526000908152604090205460ff1681565b60405190151581526020015b60405180910390f35b600554610187906001600160a01b031681565b6040516001600160a01b03909116815260200161016b565b6101b26101ad366004611d46565b61039b565b60405190815260200161016b565b6101b260008051602061258783398151915281565b6101fc7f000000000000000000000000000000000000000000000000000000000000000081565b60405163ffffffff909116815260200161016b565b61022461021f366004611d68565b61050f565b005b61015f610234366004611d2d565b610723565b610224610247366004611d68565b6107a1565b61025f61025a366004611dc0565b6108dc565b60405161016b93929190611eeb565b6101b260035481565b600654610187906001600160a01b031681565b6002546101fc9063ffffffff1681565b60025463ffffffff166000908152600160205260409020546101b2565b6101b26102c5366004611d2d565b60016020526000908152604090205481565b6101fc606481565b61015f6102ed366004611d2d565b60009081526004602052604090205460ff1690565b6101b2610310366004611d2d565b6109bb565b6101b27f2fe54c60d3acabf3343a35b6eba15db4821b340f76e741e2249685ed4899af6c81565b6101877f000000000000000000000000000000000000000000000000000000000000000081565b6101b2610371366004611d2d565b60006020819052908152604090205481565b6002546101fc90640100000000900463ffffffff1681565b600060008051602061258783398151915283106103ff5760405162461bcd60e51b815260206004820181905260248201527f5f6c6566742073686f756c6420626520696e7369646520746865206669656c6460448201526064015b60405180910390fd5b60008051602061258783398151915282106104665760405162461bcd60e51b815260206004820152602160248201527f5f72696768742073686f756c6420626520696e7369646520746865206669656c6044820152601960fa1b60648201526084016103f6565b61046e611ce2565b8381526020810183905260405163014cf2b360e51b81527f00000000000000000000000000000000000000000000000000000000000000006001600160a01b03169063299e5660906104c4908490600401611f32565b602060405180830381865afa1580156104e1573d6000803e3d6000fd5b505050506040513d601f19601f820116820180604052508101906105059190611f63565b9150505b92915050565b600061051e6020830183611f7c565b6020013513156105e55760006105348280611f9d565b6105469061010081019060e001611fcb565b90506001600160a01b0381166323b872dd33306105666020870187611f7c565b6040516001600160e01b031960e086901b1681526001600160a01b0393841660048201529290911660248301526020013560448201526064016020604051808303816000875af11580156105be573d6000803e3d6000fd5b505050506040513d601f19601f820116820180604052508101906105e29190611fe6565b50505b6105ee8161100e565b60006105fd6020830183611f7c565b6020013512156107205760006106166020830183611f7c565b610624906020810190611fcb565b6001600160a01b03160361064a5760405162461bcd60e51b81526004016103f690612008565b60006106568280611f9d565b6106689061010081019060e001611fcb565b90506001600160a01b03811663a9059cbb6106866020850185611f7c565b610694906020810190611fcb565b6106a16020860186611f7c565b602001356106ae90612055565b6040516001600160e01b031960e085901b1681526001600160a01b03909216600483015260248201526044016020604051808303816000875af11580156106f9573d6000803e3d6000fd5b505050506040513d601f19601f8201168201806040525081019061071d9190611fe6565b50505b50565b600081810361073457506000919050565b60025463ffffffff16805b63ffffffff81166000908152600160205260409020548403610765575060019392505050565b8063ffffffff16600003610777575060645b8061078181612071565b9150508163ffffffff168163ffffffff160361073f575060009392505050565b60006107b06020830183611f7c565b6020013512156108d35760006107c96020830183611f7c565b6107d7906020810190611fcb565b6001600160a01b0316036107fd5760405162461bcd60e51b81526004016103f690612008565b60006108098280611f9d565b61081b9061010081019060e001611fcb565b90506001600160a01b03811663a9059cbb6108396020850185611f7c565b610847906020810190611fcb565b6108546020860186611f7c565b6020013561086190612055565b6040516001600160e01b031960e085901b1681526001600160a01b03909216600483015260248201526044016020604051808303816000875af11580156108ac573d6000803e3d6000fd5b505050506040513d601f19601f820116820180604052508101906108d09190611fe6565b50505b610720816110a0565b6108e4611ce2565b6108ec611d00565b6108f4611ce2565b835160c01461093c5760405162461bcd60e51b8152602060048201526014602482015273092dcecc2d8d2c840d2dce0eae840d8cadccee8d60631b60448201526064016103f6565b610944611ce2565b61094c611d00565b610954611ce2565b602087810151845260408801519084015260608260005b600281101561099d5789830180516040838102850191825260209283015192909101919091529092019160010161096b565b50509096018051875260209081015190870152909590949350915050565b6000816000036109ec57507f2fe54c60d3acabf3343a35b6eba15db4821b340f76e741e2249685ed4899af6c919050565b81600103610a1b57507f13e37f2d6cb86c78ccc1788607c2b199788c6bb0a615a21f2e7a8e88384222f8919050565b81600203610a4a57507f217126fa352c326896e8c2803eec8fd63ad50cf65edfef27a41a9e32dc622765919050565b81600303610a7957507f0e28a61a9b3e91007d5a9e3ada18e1b24d6d230c618388ee5df34cacd7397eee919050565b81600403610aa857507f27953447a6979839536badc5425ed15fadb0e292e9bc36f92f0aa5cfa5013587919050565b81600503610ad757507f194191edbfb91d10f6a7afd315f33095410c7801c47175c2df6dc2cce0e3affc919050565b81600603610b0657507f1733dece17d71190516dbaf1927936fa643dc7079fc0cc731de9d6845a47741f919050565b81600703610b3557507f267855a7dc75db39d81d17f95d0a7aa572bf5ae19f4db0e84221d2b2ef999219919050565b81600803610b6457507f1184e11836b4c36ad8238a340ecc0985eeba665327e33e9b0e3641027c27620d919050565b81600903610b9357507f0702ab83a135d7f55350ab1bfaa90babd8fc1d2b3e6a7215381a7b2213d6c5ce919050565b81600a03610bc257507f2eecc0de814cfd8c57ce882babb2e30d1da56621aef7a47f3291cffeaec26ad7919050565b81600b03610bf157507f280bc02145c155d5833585b6c7b08501055157dd30ce005319621dc462d33b47919050565b81600c03610c2057507f045132221d1fa0a7f4aed8acd2cbec1e2189b7732ccb2ec272b9c60f0d5afc5b919050565b81600d03610c4f57507f27f427ccbf58a44b1270abbe4eda6ba53bd6ac4d88cf1e00a13c4371ce71d366919050565b81600e03610c7e57507f1617eaae5064f26e8f8a6493ae92bfded7fde71b65df1ca6d5dcec0df70b2cef919050565b81600f03610cad57507f20c6b400d0ea1b15435703c31c31ee63ad7ba5c8da66cec2796feacea575abca919050565b81601003610cdc57507f09589ddb438723f53a8e57bdada7c5f8ed67e8fece3889a73618732965645eec919050565b81601103610d0a57507e64b6a738a5ff537db7b220f3394f0ecbd35bfd355c5425dc1166bf3236079b919050565b81601203610d3957507f095de56281b1d5055e897c3574ff790d5ee81dbc5df784ad2d67795e557c9e9f919050565b81601303610d6857507f11cf2e2887aa21963a6ec14289183efe4d4c60f14ecd3d6fe0beebdf855a9b63919050565b81601403610d9757507f2b0f6fc0179fa65b6f73627c0e1e84c7374d2eaec44c9a48f2571393ea77bcbb919050565b81601503610dc657507f16fdb637c2abf9c0f988dbf2fd64258c46fb6a273d537b2cf1603ea460b13279919050565b81601603610df557507f21bbd7e944f6124dad4c376df9cc12e7ca66e47dff703ff7cedb1a454edcf0ff919050565b81601703610e2457507f2784f8220b1c963e468f590f137baaa1625b3b92a27ad9b6e84eb0d3454d9962919050565b81601803610e5357507f16ace1a65b7534142f8cc1aad810b3d6a7a74ca905d9c275cb98ba57e509fc10919050565b81601903610e8257507f2328068c6a8c24265124debd8fe10d3f29f0665ea725a65e3638f6192a96a013919050565b81601a03610eb157507f2ddb991be1f028022411b4c4d2c22043e5e751c120736f00adf54acab1c9ac14919050565b81601b03610ee057507f0113798410eaeb95056a464f70521eb58377c0155f2fe518a5594d38cc209cc0919050565b81601c03610f0f57507f202d1ae61526f0d0d01ef80fb5d4055a7af45721024c2c24cffd6a3798f54d50919050565b81601d03610f3e57507f23ab323453748129f2765f79615022f5bebd6f4096a796300aab049a60b0f187919050565b81601e03610f6d57507f1f15585f8947e378bcf8bd918716799da909acdb944c57150b1eb4565fda8aa0919050565b81601f03610f9c57507f1eb064b21055ac6a350cf41eb30e4ce2cb19680217df3a243617c2838185ad06919050565b81602003610fcb57507f25a90efc49af54a5b7154a6eaba978dcf04796b4984fe54be8d4ea8579e1f1e6919050565b60405162461bcd60e51b8152602060048201526013602482015272496e646578206f7574206f6620626f756e647360681b60448201526064016103f6565b919050565b6006546001600160a01b03166110276020830183611f7c565b611035906020810190611fcb565b6001600160a01b0316036110975760405162461bcd60e51b8152602060048201526024808201527f726563697069656e742073686f756c64206e6f742062652073776170457865636044820152633aba37b960e11b60648201526084016103f6565b6107208161142e565b60006110af6020830183611f7c565b60200135126111005760405162461bcd60e51b815260206004820152601c60248201527f657874416d6f756e742073686f756c64206265206e656761746976650000000060448201526064016103f6565b600061110c8280611f9d565b61111e9061010081019060e001611fcb565b6001600160a01b0316036111745760405162461bcd60e51b815260206004820152601d60248201527f7075626c696341737365742073686f756c64206e6f742062652030783000000060448201526064016103f6565b61117d8161142e565b6006546001600160a01b03166111966020830183611f7c565b6111a4906020810190611fcb565b6001600160a01b0316146112055760405162461bcd60e51b815260206004820152602260248201527f6f6e6c7920737761704578656375746f722063616e20626520726563697069656044820152611b9d60f21b60648201526084016103f6565b60006112146020830183611f7c565b6112259060a0810190608001611fcb565b6001600160a01b03160361127b5760405162461bcd60e51b815260206004820152601a60248201527f746f6b656e4f75742073686f756c64206e6f742062652030783000000000000060448201526064016103f6565b600061128a6020830183611f7c565b60a00135116112e95760405162461bcd60e51b815260206004820152602560248201527f616d6f756e744f75744d696e2073686f756c6420626520677265617465722074604482015264068616e20360dc1b60648201526084016103f6565b6006546001600160a01b031663a0c6a6ef6113048380611f9d565b6113169061010081019060e001611fcb565b6113236020850185611f7c565b6113349060a0810190608001611fcb565b6113416020860186611f7c565b6020013561134e90612055565b61135b6020870187611f7c565b60a0013561136c6020880188611f7c565b61137e9061010081019060e001611fcb565b61138b6020890189611f7c565b61139c9060e081019060c001611fcb565b6113a960208a018a611f7c565b6113b890610100810190612091565b6113c560208c018c611f7c565b6113d490610120810190612091565b6040518b63ffffffff1660e01b81526004016113f99a99989796959493929190612108565b600060405180830381600087803b15801561141357600080fd5b505af1158015611427573d6000803e3d6000fd5b5050505050565b61144461143b8280611f9d565b60200135610723565b6114865760405162461bcd60e51b8152602060048201526013602482015272125b9d985b1a59081b595c9adb19481c9bdbdd606a1b60448201526064016103f6565b60005b6114938280611f9d565b506002811015611530576114d86114aa8380611f9d565b60400182600281106114be576114be611f1c565b602002013560009081526004602052604090205460ff1690565b1561151e5760405162461bcd60e51b8152602060048201526016602482015275125b9c1d5d081a5cc8185b1c9958591e481cdc195b9d60521b60448201526064016103f6565b806115288161217a565b915050611489565b5060008051602061258783398151915261154d6020830183611f7c565b60405160200161155d91906121d9565b6040516020818303038152906040528051906020012060001c6115809190612331565b61158a8280611f9d565b6101000135146115dc5760405162461bcd60e51b815260206004820152601c60248201527f496e636f72726563742065787465726e616c206461746120686173680000000060448201526064016103f6565b6003546115e890612055565b6115f56020830183611f7c565b6020013513801561161757506003546116116020830183611f7c565b60200135125b61165b5760405162461bcd60e51b8152602060048201526015602482015274125b9d985b1a59081c1d589b1a58c8185b5bdd5b9d605a1b60448201526064016103f6565b604080516101008101909152600090806116758480611f9d565b6020908101358252016116888480611f9d565b60c00135815260200161169b8480611f9d565b6116ad9061010081019060e001611fcb565b6001600160a01b031681526020016116c58480611f9d565b610100013581526020016116d98480611f9d565b6040013581526020016116ec8480611f9d565b6060013581526020016116ff8480611f9d565b6080013581526020016117128480611f9d565b60a001359052905061176d6117278380611f9d565b6117319080612091565b8080601f016020809104026020016040519081016040528093929190818152602001838380828437600092019190915250859250611a20915050565b6117a95760405162461bcd60e51b815260206004820152600d60248201526c24b73b30b634b210383937b7b360991b60448201526064016103f6565b60005b6117b68380611f9d565b506002811015611821576001600460006117d08680611f9d565b60400184600281106117e4576117e4611f1c565b6020020135815260200190815260200160002060006101000a81548160ff02191690831515021790555080806118199061217a565b9150506117ac565b5060006118316020840184611f7c565b60200135121561187e57600061184a6020840184611f7c565b611858906020810190611fcb565b6001600160a01b03160361187e5760405162461bcd60e51b81526004016103f690612008565b6118a261188b8380611f9d565b608001356118998480611f9d565b60a00135611ab6565b50600280546118bf9190640100000000900463ffffffff16612345565b63ffffffff166118cf8380611f9d565b608001357ff3843eddcfcac65d12d9f26261dab50671fdbf5dc44441816c8bbdace2411afd6119016020860186611f7c565b61190f906040810190612091565b60405161191d929190612369565b60405180910390a360025461194290600190640100000000900463ffffffff16612345565b63ffffffff166119528380611f9d565b60a001357ff3843eddcfcac65d12d9f26261dab50671fdbf5dc44441816c8bbdace2411afd6119846020860186611f7c565b611992906060810190612091565b6040516119a0929190612369565b60405180910390a360005b6119b58380611f9d565b50600281101561071d576119c98380611f9d565b60400181600281106119dd576119dd611f1c565b60200201357f5e58f77bbf94b46d8d896e29753e4458c6e59b48581e20ed58c9558e96f297ce60405160405180910390a280611a188161217a565b9150506119ab565b600080600080611a2f866108dc565b600554604051636490cd3d60e11b815293965091945092506001600160a01b03169063c9219a7a90611a6b908690869086908b9060040161237d565b602060405180830381865afa158015611a88573d6000803e3d6000fd5b505050506040513d601f19601f82011682018060405250810190611aac9190611fe6565b9695505050505050565b6002805460009164010000000090910463ffffffff1690611af8907f0000000000000000000000000000000000000000000000000000000000000000906124eb565b63ffffffff168163ffffffff1603611b6b5760405162461bcd60e51b815260206004820152603060248201527f4d65726b6c6520747265652069732066756c6c2e204e6f206d6f7265206c656160448201526f1d995cc818d85b88189948185919195960821b60648201526084016103f6565b6000611b78600283612500565b90506000611b86868661039b565b905060008060015b7f000000000000000000000000000000000000000000000000000000000000000063ffffffff168163ffffffff161015611c5257611bcd600286612523565b63ffffffff16600003611c0b57839250611bec8163ffffffff166109bb565b63ffffffff821660009081526020819052604090208590559150611c27565b63ffffffff811660009081526020819052604090205492508391505b611c31838361039b565b9350611c3e600286612500565b945080611c4a81612546565b915050611b8e565b50600254600090606490611c6d9063ffffffff166001612569565b611c779190612523565b6002805463ffffffff191663ffffffff831690811782556000908152600160205260409020869055909150611cad908790612569565b6002805463ffffffff929092166401000000000267ffffffff0000000019909216919091179055509394505050505092915050565b60405180604001604052806002906020820280368337509192915050565b60405180604001604052806002905b611d17611ce2565b815260200190600190039081611d0f5790505090565b600060208284031215611d3f57600080fd5b5035919050565b60008060408385031215611d5957600080fd5b50508035926020909101359150565b600060208284031215611d7a57600080fd5b813567ffffffffffffffff811115611d9157600080fd5b820160408185031215611da357600080fd5b9392505050565b634e487b7160e01b600052604160045260246000fd5b600060208284031215611dd257600080fd5b813567ffffffffffffffff80821115611dea57600080fd5b818401915084601f830112611dfe57600080fd5b813581811115611e1057611e10611daa565b604051601f8201601f19908116603f01168101908382118183101715611e3857611e38611daa565b81604052828152876020848701011115611e5157600080fd5b826020860160208301376000928101602001929092525095945050505050565b8060005b6002811015611e94578151845260209384019390910190600101611e75565b50505050565b806000805b6002808210611eae5750611427565b835186845b83811015611ed1578251825260209283019290910190600101611eb3565b505050604095909501945060209290920191600101611e9f565b6101008101611efa8286611e71565b611f076040830185611e9a565b611f1460c0830184611e71565b949350505050565b634e487b7160e01b600052603260045260246000fd5b60408101818360005b6002811015611f5a578151835260209283019290910190600101611f3b565b50505092915050565b600060208284031215611f7557600080fd5b5051919050565b6000823561013e19833603018112611f9357600080fd5b9190910192915050565b6000823561011e19833603018112611f9357600080fd5b80356001600160a01b038116811461100957600080fd5b600060208284031215611fdd57600080fd5b611da382611fb4565b600060208284031215611ff857600080fd5b81518015158114611da357600080fd5b6020808252601e908201527f43616e277420776974686472617720746f207a65726f20616464726573730000604082015260600190565b634e487b7160e01b600052601160045260246000fd5b6000600160ff1b820161206a5761206a61203f565b5060000390565b600063ffffffff8216806120875761208761203f565b6000190192915050565b6000808335601e198436030181126120a857600080fd5b83018035915067ffffffffffffffff8211156120c357600080fd5b6020019150368190038213156120d857600080fd5b9250929050565b81835281816020850137506000828201602090810191909152601f909101601f19169091010190565b6001600160a01b038b811682528a81166020830152604082018a9052606082018990528781166080830152861660a082015261010060c0820181905260009061215483820187896120df565b905082810360e08401526121698185876120df565b9d9c50505050505050505050505050565b60006001820161218c5761218c61203f565b5060010190565b6000808335601e198436030181126121aa57600080fd5b830160208101925035905067ffffffffffffffff8111156121ca57600080fd5b8036038213156120d857600080fd5b602081526121fa602082016121ed84611fb4565b6001600160a01b03169052565b6020820135604082015260006122136040840184612193565b61014080606086015261222b610160860183856120df565b925061223a6060870187612193565b9250601f19808786030160808801526122548585846120df565b945061226260808901611fb4565b6001600160a01b03811660a0890152935060a088013560c088015261228960c08901611fb4565b6001600160a01b03811660e089015293506122a660e08901611fb4565b935061010091506122c1828801856001600160a01b03169052565b6122cd82890189612193565b945091506101208188870301818901526122e88686856120df565b95506122f6818a018a612193565b9550925050808786030183880152506123108484836120df565b979650505050505050565b634e487b7160e01b600052601260045260246000fd5b6000826123405761234061231b565b500690565b63ffffffff8281168282160390808211156123625761236261203f565b5092915050565b602081526000611f146020830184866120df565b610200810161238c8287611e71565b6123996040830186611e9a565b6123a660c0830185611e71565b61010082018360005b60088110156123ce5781518352602092830192909101906001016123af565b50505095945050505050565b600181815b80851115612417578163ffffffff048211156123fd576123fd61203f565b8085161561240a57918102915b93841c93908002906123df565b509250929050565b60008261242e57506001610509565b8161243b57506000610509565b8160018114612451576002811461245b5761248c565b6001915050610509565b60ff84111561246c5761246c61203f565b6001841b915063ffffffff8211156124865761248661203f565b50610509565b5060208310610133831016604e8410600b84101617156124c3575081810a63ffffffff8111156124be576124be61203f565b610509565b6124cd83836123da565b8063ffffffff048211156124e3576124e361203f565b029392505050565b600063ffffffff61050581851682851661241f565b600063ffffffff808416806125175761251761231b565b92169190910492915050565b600063ffffffff8084168061253a5761253a61231b565b92169190910692915050565b600063ffffffff80831681810361255f5761255f61203f565b6001019392505050565b63ffffffff8181168382160190808211156123625761236261203f56fe30644e72e131a029b85045b68181585d2833e84879b9709143e1f593f0000001a264697066735822122032b1539defae9c0e8342bbc4f55ba537d414d53b3e653e78f82a48fa611bd7aa64736f6c63430008120033",
  "linkReferences": {},
  "deployedLinkReferences": {}
}